:100000000C9478000C9499000C9499000C9499002D
:100010000C9499000C9499000C9499000C949900FC
:100020000C9499000C9499000C9499000C94FB1971
:100030000C9499000C9499000C9499000C949900DC
:100040000C9499000C9499000C9499000C949900CC
:100050000C9499000C9499000C9499000C949900BC
:100060000C9499000C9499000C9499000C949900AC
:100070000C9499000C9499000C9499000C9499009C
:100080000C9424190C9499000C9499000C949900E8
:100090000C9499000C9499000C9499000C9499007C
:1000A0000C9499000C9499000C9499000C9499006C
:1000B0000C9499000C9499000C9499000C9499005C
:1000C0000C9499000C9499000C94BF010C94990025
:1000D0000C9499000C9499000C9499000C9499003C
:1000E0000C9499000C94D2080C9401020C94941A6C
:1000F00011241FBECFEFD1E2DEBFCDBF00E00CBFA9
:1001000012E0A0E0B2E0E2EEF6E300E00BBF02C0D6
:1001100007900D92AA31B107D9F71AE1AAE1B2E02E
:1001200001C01D92A93CB107E1F70E94AB000C94FD
:100130006F1B0C940000CF93DF93CDB7DEB7809197
:100140001A0290911B02019690931B0280931A024F
:10015000DF91CF910895AF92BF92CF92DF92EF924D
:10016000FF920F93CF93DF9300D000D0CDB7DEB7CF
:1001700040E054E264EF70E080E895E20E942719C5
:100180008FE38D838EEF8E83CE0105969A838983CC
:10019000CE01059601969C838B838AE290E02FEF37
:1001A000FC0120838DE290E02FEFFC01208387E0AB
:1001B00091E0FC0110828BE290E0FC0110828EE263
:1001C00090E0FC01108288E091E022E0FC012083B5
:1001D0000E9424028B819C81A12CB12CC12CD12C9A
:1001E000E12CF12C01E09C0145E550E062E072E079
:1001F00081E092E00E9435028B819C81A12CB12C80
:10020000C12CD12CE12CF12C01E09C0145E550E002
:1002100062E072E084E99AE10E9435020E943405AE
:1002200080E090E026960FB6F894DEBF0FBECDBFFB
:10023000DF91CF910F91FF90EF90DF90CF90BF9023
:10024000AF900895CF93DF93CDB7DEB762970FB627
:10025000F894DEBF0FBECDBF9A8B898B20E1E5E01D
:10026000F2E0CE010196DC0101900D922A95E1F7B2
:1002700089899A89892F992782958F709E012F5F8E
:100280003F4F820F931FFC0180810E948219898950
:100290009A8988279F70892F990F990B9E012F5F4C
:1002A0003F4F820F931FFC0180810E948219898930
:1002B0009A89807F992795958795959587959595A6
:1002C0008795959587959E012F5F3F4F820F931FCE
:1002D000FC0180810E94821989899A898F709927EF
:1002E0009E012F5F3F4F820F931FFC0180810E9470
:1002F000821962960FB6F894DEBF0FBECDBFDF91B4
:10030000CF910895CF93DF93CDB7DEB72D970FB67A
:10031000F894DEBF0FBECDBF8D87CE0103964AE0B5
:1003200050E060E070E00E94141B8D85882F90E003
:100330009E012D5F3F4F49E050E0B9010E942A1B0A
:10034000CE0103969A8389830BC089819A81FC012F
:1003500080810E94821989819A8101969A8389837A
:1003600089819A81FC018081882379F72D960FB6C7
:10037000F894DEBF0FBECDBFDF91CF9108951F92DD
:100380000F9200905F000F92112400905B000F927B
:100390002F933F938F939F93EF93FF93CF93DF938D
:1003A000CDB7DEB785E290E025E230E0F9012081AB
:1003B0002095FC01208384E990E0FC01108285E90E
:1003C00090E0FC011082DF91CF91FF91EF919F911E
:1003D0008F913F912F910F9000925B000F900092B0
:1003E0005F000F901F901895CF93DF93CDB7DEB7C6
:1003F00086E490E0FC018081882F90E0DF91CF912E
:100400000895CF93DF931F921F92CDB7DEB79A83E3
:10041000898381E090E00E94A20380E090E00E9446
:10042000DD190E94820180E20E94821981E090E041
:100430000E94DD190E9482018AE00E94821989E1EE
:1004400090E00E94A203E5CFCF93DF93CDB7DEB754
:1004500084E290E02FEFFC01208385E290E02FEF13
:10046000FC012083DF91CF910895AF92BF92CF928C
:10047000DF92EF92FF920F931F93CF93DF93CDB74D
:10048000DEB764970FB6F894DEBF0FBECDBF9F8373
:100490008E83798768875B874A873D872C870E879D
:1004A000F88AEF86DA8AC98ABC8AAB8A29893A89AE
:1004B0008A859B85B9010E94D4099B838A838A819E
:1004C0009B81009709F49FC08A819B81FC01278949
:1004D000308D8A859B850197820F931F9D838C8326
:1004E0004A855B852B893C89688579858A819B81D2
:1004F0008A014E850E94E4084C855D852E813F81EE
:100500008C819D81B9010E94FC159C018A819B818F
:10051000FC01318320838F859889009739F08F857E
:1005200098892A813B81FC01318320830FB6F8949E
:100530000F9280916A028F5F80936A0280911C0201
:1005400090911D02009769F48A819B8190931D020E
:1005500080931C0280916A028130B1F40E944509A7
:1005600013C080916F02882379F480911C029091CE
:100570001D02FC0196898E85891730F08A819B8146
:1005800090931D0280931C028A819B81FC019689B5
:1005900080916D02891730F48A819B81FC018689E4
:1005A00080936D02809174028F5F809374028A81C0
:1005B0009B81FC01968980916E02891730F48A81B3
:1005C0009B81FC01868980936E028A819B81AC01AC
:1005D0004E5F5F4F8A819B81FC018689282F30E026
:1005E000C901880F991F880F991F880F991F820FC3
:1005F000931F825E9D4FBA010E946E1181E0898334
:100600000F900FBE02C08FEF89838981813079F40A
:1006100080916F02882359F080911C0290911D02F5
:10062000FC0196898E85981710F40E940018898124
:1006300064960FB6F894DEBF0FBECDBFDF91CF91A9
:100640001F910F91FF90EF90DF90CF90BF90AF90F0
:100650000895CF93DF93CDB7DEB728970FB6F89400
:10066000DEBF0FBECDBF9E838D8378876F831982D7
:100670000E9476058D819E81FC01208131818F81D0
:100680009885820F931F9B838A838D819E81FC01B5
:100690002081318180916B0290916C0282179307C7
:1006A000B0F48D819E81FC01208131818A819B8102
:1006B0008217930708F580916B0290916C022A8152
:1006C0003B8182179307C0F481E0898315C08D8137
:1006D0009E81FC01208131818A819B818217930751
:1006E00048F080916B0290916C022A813B818217C5
:1006F000930710F481E089838D819E812A813B815B
:10070000FC01318320838981882359F080911C0268
:1007100090911D0202960E943E128A819B810E9446
:1007200089090E9482058C838C81882311F40E94A0
:10073000001828960FB6F894DEBF0FBECDBFDF912C
:10074000CF910895CF93DF9300D01F921F92CDB722
:10075000DEB79D838C8319828C819D810097D1F0B7
:100760000E94760520916B0230916C028C819D81F4
:10077000820F931F9B838A8380911C0290911D029C
:1007800002960E943E128A819B810E9489090E94E2
:10079000820589838981882311F40E9400180F90B3
:1007A0000F900F900F900F90DF91CF910895CF93FE
:1007B000DF9300D01F92CDB7DEB79C838B830FB63B
:1007C000F8940F9280911C0290911D022B813C8124
:1007D0002817390711F41C821B828B819C8100979A
:1007E00029F480911C0290911D0202C08B819C8192
:1007F0009A83898389819A8102960E943E12898117
:100800009A81FC0184899589009729F089819A81D0
:100810000C960E943E1289819A810296BC0181E663
:1008200092E00E946E110F900FBE8B819C81009709
:10083000A1F480916F02882319F00E9400180DC066
:100840009091610280916A02981729F410921D021A
:1008500010921C0202C00E9420070F900F900F9070
:100860000F90DF91CF910895CF93DF9300D01F9227
:100870001F92CDB7DEB79D838C8319828C819D81B9
:100880009B838A838A819B81FC0182859385F2E028
:1008900081369F0791F48A819B81FC018489958927
:1008A000F2E088359F0749F08A819B81FC018489A9
:1008B0009589009711F481E0898389810F900F90C9
:1008C0000F900F900F90DF91CF910895CF93DF930A
:1008D00000D01F92CDB7DEB79C838B838B819C8128
:1008E0009A83898389819A81009709F44FC0809106
:1008F0001C0290911D0229813A812817390709F4B9
:1009000045C00FB6F8940F9289819A810E943404F1
:100910008130D1F589819A8102960E943E128981A7
:100920009A81FC01968980916E02891730F4898141
:100930009A81FC01868980936E0289819A81AC013B
:100940004E5F5F4F89819A81FC018689282F30E0B4
:10095000C901880F991F880F991F880F991F820F4F
:10096000931F825E9D4FBA010E946E1189819A8108
:10097000FC01268980911C0290911D02FC01868950
:10098000281710F00E9400180F900FBE0F900F90C4
:100990000F900F90DF91CF910895CF93DF9300D008
:1009A00000D0CDB7DEB79E838D8319828D819E8165
:1009B0009B838A831C828A819B810E9434048130BC
:1009C00009F048C0809170028823E1F58A819B81FB
:1009D000FC01268980911C0290911D02FC019689E0
:1009E00081E0291708F480E089838A819B8102963F
:1009F0000E943E128A819B81FC01968980916E0241
:100A0000891730F48A819B81FC01868980936E026C
:100A10008A819B81AC014E5F5F4F8A819B81FC0183
:100A20008689282F30E0C901880F991F880F991FE8
:100A3000880F991F820F931F825E9D4FBA010E94FB
:100A40006E1108C08A819B810C96BC0188E592E0FA
:100A50000E946E11898126960FB6F894DEBF0FBEF4
:100A6000CDBFDF91CF910895AF92BF92CF92DF9229
:100A7000EF92FF920F93CF93DF931F92CDB7DEB724
:100A8000A12CB12CC12CD12CE12CF12C00E020E0C8
:100A900030E045E550E065E172E082ED98E00E94CB
:100AA000350289838981813051F4F89481E0809303
:100AB0006F0210926C0210926B020E94C0170F908E
:100AC000DF91CF910F91FF90EF90DF90CF90BF908B
:100AD000AF900895CF93DF93CDB7DEB7F89410921F
:100AE0006F020E94F917DF91CF910895CF93DF93A2
:100AF000CDB7DEB7809170028F5F80937002DF9177
:100B0000CF9108950F931F93CF93DF931F921F925E
:100B1000CDB7DEB719820FB6F8940F9280917002AC
:100B200081508093700280917002882309F064C024
:100B300080916A02882309F45FC01A823AC08091CA
:100B40005D0290915E02FC0106811781C8010C963E
:100B50000E943E12C80102960E943E12F801968938
:100B600080916E02891720F4F801868980936E02C5
:100B7000A8014E5F5F4FF8018689282F30E0C90138
:100B8000880F991F880F991F880F991F820F931F35
:100B9000825E9D4FBA010E946E11F80126898091F4
:100BA0001C0290911D02FC018689281710F081E03B
:100BB0008A8380915802882311F6809171028823DC
:100BC00071F007C00E943B068091710281508093B2
:100BD0007102809171028823A9F781E08A838A815A
:100BE000813021F080917202813031F481E089837B
:100BF000109272020E9400180F900FBE89810F9010
:100C00000F90DF91CF911F910F910895CF93DF93B4
:100C10001F921F92CDB7DEB70FB6F8940F92809156
:100C20006B0290916C029A8389830F900FBE898129
:100C30009A810F900F90DF91CF910895CF93DF931A
:100C400000D0CDB7DEB7198280916B0290916C0213
:100C50009B838A838A819B810F900F900F90DF91F5
:100C6000CF910895CF93DF93CDB7DEB780916A021D
:100C7000DF91CF910895CF93DF9300D000D0CDB70F
:100C8000DEB780917002882309F0C4C080916B02A6
:100C900090916C02019690936C0280936B0280910C
:100CA0006B0290916C020097E9F58091540290914B
:100CB00055029A83898380915602909157029093AE
:100CC00055028093540289819A81909357028093B0
:100CD0005602809173028F5F809373028091540259
:100CE00090915502FC018081882339F48FEF9FEFAA
:100CF000909301028093000215C08091540290915C
:100D00005502FC0185819681FC01868197819C8337
:100D10008B838B819C81FC01828193819093010262
:100D20008093000220916B0230916C02809100024E
:100D3000909101022817390708F46BC08091540282
:100D400090915502FC018081882339F48FEF9FEF49
:100D500090930102809300025CC0809154029091B4
:100D60005502FC0185819681FC01868197819C83D7
:100D70008B838B819C81FC01828193819E838D83F7
:100D800020916B0230916C028D819E81281739076A
:100D900038F48D819E81909301028093000239C0C6
:100DA0008B819C8102960E943E128B819C81FC016A
:100DB00084899589009729F08B819C810C960E94EB
:100DC0003E128B819C81FC01968980916E0289176D
:100DD00030F48B819C81FC01868980936E028B812B
:100DE0009C81AC014E5F5F4F8B819C81FC018689A9
:100DF000282F30E0C901880F991F880F991F880F8D
:100E0000991F820F931F825E9D4FBA010E946E113F
:100E100095CF07C0809171028F5F809371020E940D
:100E20009B0080917102882311F40E949B002696FA
:100E30000FB6F894DEBF0FBECDBFDF91CF910895FE
:100E4000CF93DF931F921F92CDB7DEB780917002D0
:100E5000882321F081E0809372025BC005C08091FD
:100E60006E02815080936E0280916E02282F30E0D6
:100E7000C901880F991F880F991F880F991F820F2A
:100E8000931F825E9D4FFC018081882341F38091F6
:100E90006E02282F30E0C901880F991F880F991F13
:100EA000880F991F820F931F825E9D4F9A838983BB
:100EB00089819A81FC0181819281FC0122813381A7
:100EC00089819A81FC013283218389819A81FC0185
:100ED0002181328189819A8103962817390769F423
:100EE00089819A81FC0181819281FC012281338177
:100EF00089819A81FC013283218389819A81FC0155
:100F000081819281FC018681978190931D0280935B
:100F10001C020F900F90DF91CF910895CF93DF9334
:100F200000D000D0CDB7DEB79C838B837E836D83EA
:100F300080911C0290911D029C01245F3F4F8B8188
:100F40009C81B9010E94C51180911C0290911D02E3
:100F500002960E943E128D819E818F3F2FEF920755
:100F600059F480911C0290911D020296BC0181E609
:100F700092E00E946E110EC020916B0230916C02C3
:100F80008D819E81820F931F9A83898389819A81A3
:100F90000E94890926960FB6F894DEBF0FBECDBF1A
:100FA000DF91CF910895CF93DF9300D01F921F92CE
:100FB000CDB7DEB79D838C838C819D81FC018581BB
:100FC0009681FC01868197819B838A838A819B819C
:100FD0000C960E943E1280917002882369F58A81E6
:100FE0009B8102960E943E128A819B81FC01968918
:100FF00080916E02891730F48A819B81FC01868979
:1010000080936E028A819B81AC014E5F5F4F8A8123
:101010009B81FC018689282F30E0C901880F991F28
:10102000880F991F880F991F820F931F825E9D4F13
:10103000BA010E946E1108C08A819B810C96BC0186
:1010400088E592E00E946E118A819B81FC012689CD
:1010500080911C0290911D02FC018689281718F0CE
:1010600081E0898301C0198289810F900F900F90D0
:101070000F900F90DF91CF910895CF93DF931F9240
:101080001F92CDB7DEB79A8389832091730289813D
:101090009A81FC01208320916B0230916C0289813E
:1010A0009A81FC01328321830F900F90DF91CF91C1
:1010B0000895CF93DF9300D01F921F92CDB7DEB774
:1010C0009B838A837D836C830FB6F8940F928C8107
:1010D0009D81FC01808191818F3FFFEF9F0711F47B
:1010E00019824BC08A819B81FC019081809173029F
:1010F000981779F08A819B81FC012181328180914E
:101100006B0290916C028217930718F081E089833B
:1011100034C020916B0230916C028A819B81FC016A
:1011200081819281281B390B8C819D81FC018081FA
:10113000918128173907F8F48C819D81FC01208169
:1011400031818A819B81FC014181528180916B02B6
:1011500090916C02BA01681B790BCB01280F391FE3
:101160008C819D81FC01318320838A819B810E9437
:101170003D08198202C081E089830F900FBE8981EA
:101180000F900F900F900F900F90DF91CF910895D7
:10119000CF93DF93CDB7DEB781E080937202DF910A
:1011A000CF910895CF93DF931F921F92CDB7DEB7F3
:1011B0009A8389830E94820980911E02823018F0EE
:1011C0000E940018F7CFF6CF0F931F93CF93DF93B2
:1011D000CDB7DEB729970FB6F894DEBF0FBECDBFEF
:1011E0009A8389837C836B834D833F832E83198706
:1011F000088789819A8149962B813C8140E150E0A2
:10120000B9010E941B1B89819A81FC0110A68D8166
:10121000843010F083E08D8389819A812D81FC01D7
:10122000268B89819A812D81FC0121A789819A8150
:1012300002960E945C1189819A810C960E945C1131
:1012400089819A8129813A81FC01318720878D81AA
:10125000882F90E024E030E0281B390B89819A81A7
:10126000FC013587248789819A8129813A81FC0193
:10127000338B228B29960FB6F894DEBF0FBECDBFFD
:10128000DF91CF911F910F910895CF93DF931F921C
:10129000CDB7DEB7198213C08981282F30E0C9018C
:1012A000880F991F880F991F880F991F820F931F0E
:1012B000825E9D4F0E94261189818F5F898389817B
:1012C000843050F382E492E00E9426118BE492E095
:1012D0000E94261188E592E00E94261181E692E0A4
:1012E0000E94261182E492E090935502809354026A
:1012F0008BE492E090935702809356020F90DF9117
:10130000CF910895CF93DF93CDB7DEB7DF91CF9123
:101310000895CF93DF931F921F92CDB7DEB79A83C4
:10132000898380911C0290911D0229813A81FC01E0
:101330003383228380916B0290916C0229813A81E0
:101340002817390778F480911C0290911D029C01A6
:101350002E5F3F4F8091560290915702B9010E9433
:10136000C5111DC080911C0290911D029C012E5F31
:101370003F4F8091540290915502B9010E94C511CE
:10138000809100029091010229813A812817390742
:1013900030F489819A8190930102809300020F902A
:1013A0000F90DF91CF910895CF93DF9300D000D0BD
:1013B000CDB7DEB79C838B837E836D838AE290E01A
:1013C0000E948D159A83898389819A81009751F1B2
:1013D0008D819E81009729F48B819C810E948D15BF
:1013E00002C08D819E8129813A81F901908F878B7E
:1013F00089819A81FC018789908D009739F48981D0
:101400009A810E94D3151A8219820CC089819A810F
:10141000FC018789908D2B813C81A90165EA70E0F0
:101420000E94141B89819A8126960FB6F894DEBF1C
:101430000FBECDBFDF91CF9108950F931F93CF9330
:10144000DF931F921F92CDB7DEB79A83898300E0A6
:1014500010E009C089819A8101969A838983C80125
:101460008C010F5F1F4F89819A81FC018081853A31
:1014700089F3C8010F900F90DF91CF911F910F91C9
:101480000895CF93DF93CDB7DEB727970FB6F894C3
:10149000DEBF0FBECDBF9F838E838E819F8100975D
:1014A00029F480911C0290911D0202C08E819F81BF
:1014B0009A83898389819A81FC018789908D9C8395
:1014C0008B838B819C810E941D0A8D838D81279641
:1014D0000FB6F894DEBF0FBECDBFDF91CF91089558
:1014E000CF93DF931F921F92CDB7DEB780911C027E
:1014F00090911D029A83898389819A810F900F9020
:10150000DF91CF910895CF93DF9300D01F92CDB795
:10151000DEB79C838B838B819C819A8389838B81AB
:101520009C81009709F478C089819A81FC01268901
:1015300080911C0290911D02FC018689281708F0F9
:101540006BC080911C0290911D02FC018689882F3E
:1015500090E024E030E0281B390B89819A81FC015E
:101560003587248789819A81FC0142855385898149
:101570009A81FC018689282F30E0C901880F991FC4
:10158000880F991F880F991F820F931F825E9D4FAE
:1015900048175907B9F589819A8102960E943E122F
:1015A00080911C0290911D02FC01268989819A81FB
:1015B000FC01268B89819A81FC01968980916E02BB
:1015C000891730F489819A81FC01868980936E02A3
:1015D00089819A81AC014E5F5F4F89819A81FC01BC
:1015E0008689282F30E0C901880F991F880F991F1D
:1015F000880F991F820F931F825E9D4FBA010E9430
:101600006E110AC080911C0290911D02FC01268976
:1016100089819A81FC01268B0F900F900F900F907B
:10162000DF91CF910895CF93DF9300D01F92CDB774
:10163000DEB79C838B838B819C819A8389838B818A
:101640009C81009709F44EC089819A81FC0126890A
:1016500089819A81FC0181A5281709F443C08981F9
:101660009A8102960E943E1289819A81FC0121A5ED
:1016700089819A81FC01268B89819A81FC01868966
:10168000882F90E024E030E0281B390B89819A8173
:10169000FC013587248789819A81FC019689809194
:1016A0006E02891730F489819A81FC0186898093C2
:1016B0006E0289819A81AC014E5F5F4F89819A8168
:1016C000FC018689282F30E0C901880F991F880FF7
:1016D000991F880F991F820F931F825E9D4FBA0139
:1016E0000E946E110F900F900F900F90DF91CF918D
:1016F0000895CF93DF9300D0CDB7DEB79A83898367
:101700006B830FB6F8940F9289819A81FC01208136
:10171000318189819A81FC01838D682F70E08981F4
:101720009A81FC01848D482F50E0649FC001659F21
:10173000900D749F900D1124280F391F89819A8173
:10174000FC013383228389819A81FC01128E898175
:101750009A81FC012081318189819A81FC01358344
:10176000248389819A81FC012081318189819A8138
:10177000FC01838D882F90E0BC0161507109898143
:101780009A81FC01848D482F50E0649FC001659FC1
:10179000900D749F900D1124280F391F89819A8113
:1017A000FC013783268389819A812FEFFC01258FE5
:1017B00089819A812FEFFC01268F8B81882381F408
:1017C00089819A81FC0180858823A1F089819A8191
:1017D00008960E94D307813069F40E9400180AC05D
:1017E00089819A8108960E94261189819A81419661
:1017F0000E9426110F900FBE81E00F900F900F9066
:10180000DF91CF910895CF93DF93CDB7DEB72997BE
:101810000FB6F894DEBF0FBECDBF8F8368874987B0
:101820001A8219828F81882309F443C08FE190E0E6
:101830000E948D159C838B838B819C810097C9F1BD
:101840008F81482F50E08885282F30E0429FC001CB
:10185000439F900D529F900D112401969E838D837E
:101860008D819E810E948D159C018B819C81FC0144
:10187000318320838B819C81FC0180819181009741
:10188000A1F08B819C812F81FC01238F8B819C8116
:101890002885FC01248F8B819C8161E00E94790B5B
:1018A0008B819C819A83898304C08B819C810E9457
:1018B000D31589819A8129960FB6F894DEBF0FBEA1
:1018C000CDBFDF91CF910895CF93DF9300D0CDB7F7
:1018D000DEB78B838FE190E00E948D159A83898318
:1018E00089819A810097F1F189819A81FC011382A3
:1018F000128289819A81FC011182108289819A81E8
:10190000FC011582148289819A81FC01178216825A
:1019100089819A81FC01128E89819A8121E0FC01E2
:10192000238F89819A81FC01148E89819A812FEFFE
:10193000FC01258F89819A812FEFFC01268F8981F7
:101940009A8108960E94261189819A8141960E9467
:10195000261189819A8120E040E050E060E070E04B
:101960000E94BA0C89819A810F900F900F90DF919D
:10197000CF910895CF93DF93CDB7DEB72B970FB6F6
:10198000F894DEBF0FBECDBF9E838D8378876F83B3
:101990005A8749872B8719820FB6F8940F928D8149
:1019A0009E81FC01228D8D819E81FC01838D2817F3
:1019B000D8F42F8138858D819E814B85B9010E9495
:1019C000440F8D819E81FC018189882349F08D819E
:1019D0009E8141960E94D307813011F40E94001825
:1019E0000F900FBE81E061C089859A85009721F430
:1019F0000F900FBE80E059C08981882331F4CE0159
:101A000002960E943D0881E089830F900FBE0E94DC
:101A100076050FB6F8940F928D819E81FC01858D1D
:101A20008F3F21F48D819E81FC01158E8D819E81D9
:101A3000FC01868D8F3F21F48D819E81FC01168EE5
:101A40000F900FBE9E01275F3F4FCE010296B90156
:101A50000E945908882301F58D819E810E94EB1018
:101A6000882399F029853A858D819E810896B90150
:101A70000E948E078D819E810E9453100E948205D4
:101A8000882391F40E9400180FC08D819E810E94CE
:101A900053100E94820580CF8D819E810E94531039
:101AA0000E94820580E001C077CF2B960FB6F89494
:101AB000DEBF0FBECDBFDF91CF910895CF93DF93EF
:101AC000CDB7DEB729970FB6F894DEBF0FBECDBFF6
:101AD0009C838B837E836D8358874F8329871A82EB
:101AE0008B819C81FC01228D8B819C81FC01838DEB
:101AF000281790F52D813E818B819C814985B90104
:101B00000E94440F8B819C81FC01868D8F3FB9F42C
:101B10008B819C81FC0181898823D9F08B819C81F8
:101B200041960E94D3078823A1F08F819885009762
:101B300081F08F81988521E0FC0120830AC08B8190
:101B40009C81FC01868D21E0280F8B819C81FC010A
:101B5000268F81E0898301C01982898129960FB679
:101B6000F894DEBF0FBECDBFDF91CF910895CF9324
:101B7000DF93CDB7DEB72D970FB6F894DEBF0FBE5B
:101B8000CDBF98878F837A8769875C874B872D873E
:101B900019820FB6F8940F928F819885FC01828D7F
:101BA000882309F454C08F819885FC018681978130
:101BB0009B838A8329853A858F819885B9010E9404
:101BC00002108D85882349F58F819885FC01828DCF
:101BD0002FEF280F8F819885FC01228F8F819885A8
:101BE000FC0180819181009741F40E94700A9C0160
:101BF0008F819885FC01338322838F819885FC0136
:101C00008085882301F18F81988508960E94D307EB
:101C10008130C9F40E94001816C08F8198852A81EE
:101C20003B81FC01378326838F819885FC01818964
:101C3000882349F08F81988541960E94D307882395
:101C400011F00E9400180F900FBE81E074C08B85C8
:101C50009C85009721F40F900FBE80E06CC08981B5
:101C6000882331F4CE0104960E943D0881E08983E7
:101C70000F900FBE0E9476050FB6F8940F928F81D9
:101C80009885FC01858D8F3F21F48F819885FC011B
:101C9000158E8F819885FC01868D8F3F21F48F8171
:101CA0009885FC01168E0F900FBE9E01255F3F4F59
:101CB000CE010496B9010E945908882399F58F81B5
:101CC00098850E94B810882331F18F819885FC0196
:101CD00080819181009761F40FB6F8940F928F8103
:101CE0009885FC01828193810E94830A0F900FBE28
:101CF0002B853C858F8198854196B9010E948E077E
:101D00008F8198850E9453100E948205882391F448
:101D10000E9400180FC08F8198850E9453100E9466
:101D2000820537CF8F8198850E9453100E948205CB
:101D300080E001C02ECF2D960FB6F894DEBF0FBE07
:101D4000CDBFDF91CF910895CF93DF93CDB7DEB7AD
:101D500028970FB6F894DEBF0FBECDBF9C838B8350
:101D60007E836D8358874F831A828B819C81FC010F
:101D7000828D8823D9F12D813E818B819C81B9018F
:101D80000E9402108B819C81FC01828D2FEF280F15
:101D90008B819C81FC01228F8B819C81FC01858D34
:101DA0008F3FB9F48B819C81FC0180858823D9F019
:101DB0008B819C8108960E94D3078823A1F08F8194
:101DC0009885009781F08F81988521E0FC01208320
:101DD0000AC08B819C81FC01858D21E0280F8B81BD
:101DE0009C81FC01258F81E0898301C01982898152
:101DF00028960FB6F894DEBF0FBECDBFDF91CF910E
:101E00000895CF93DF9300D0CDB7DEB79B838A834D
:101E10000FB6F8940F928A819B81FC01828D898391
:101E20000F900FBE89810F900F900F90DF91CF918F
:101E30000895CF93DF9300D0CDB7DEB79B838A831D
:101E40008A819B81FC01828D898389810F900F900B
:101E50000F90DF91CF910895CF93DF931F921F9240
:101E6000CDB7DEB79A83898389819A81FC0180810D
:101E700091810E94D31589819A810E94D3150F9078
:101E80000F90DF91CF910895CF93DF9300D01F92F1
:101E90001F92CDB7DEB79A8389837C836B834D8392
:101EA00089819A81FC01848D8823A9F489819A8192
:101EB000FC0180819181009709F092C089819A810B
:101EC000FC01828193810E94130B89819A81FC011C
:101ED0001382128285C08D818823D9F589819A81E8
:101EE000FC01848D482F50E089819A81FC01848116
:101EF00095812B813C81B9010E940B1B89819A81BC
:101F0000FC012481358189819A81FC01848D882F8F
:101F100090E0280F391F89819A81FC013583248341
:101F200089819A81FC012481358189819A81FC0112
:101F3000828193812817390708F452C089819A81D8
:101F4000FC012081318189819A81FC0135832483C0
:101F500047C089819A81FC01848D482F50E0898196
:101F60009A81FC01868197812B813C81B9010E9475
:101F70000B1B89819A81FC012681378189819A8195
:101F8000FC01848D882F90E0919581959109280F0F
:101F9000391F89819A81FC013783268389819A813F
:101FA000FC012681378189819A81FC0180819181A0
:101FB00028173907A8F489819A81FC01228133818D
:101FC00089819A81FC01848D882F90E0919581957B
:101FD0009109280F391F89819A81FC013783268353
:101FE00089819A81FC01828D21E0280F89819A8163
:101FF000FC01228F0F900F900F900F900F90DF91A8
:10200000CF910895CF93DF9300D01F92CDB7DEB765
:102010009A8389837C836B8389819A81FC01808187
:1020200091810097C9F189819A81FC0126813781CC
:1020300089819A81FC01848D882F90E0280F391FB7
:1020400089819A81FC013783268389819A81FC01E9
:102050002681378189819A81FC01828193812817A9
:10206000390750F089819A81FC0120813181898171
:102070009A81FC013783268389819A81FC01848DB2
:10208000482F50E089819A81FC01268137818B811C
:102090009C81B9010E940B1B0F900F900F900F9025
:1020A000DF91CF910895CF93DF931F921F92CDB709
:1020B000DEB79A8389830FB6F8940F921BC089818B
:1020C0009A81FC0181898823A1F089819A814196B6
:1020D0000E94D307882311F00E94C80889819A8141
:1020E000FC01868D2FEF280F89819A81FC01268FB4
:1020F00001C006C089819A81FC01868D1816FCF208
:1021000089819A812FEFFC01268F0F900FBE0FB6A9
:10211000F8940F921BC089819A81FC0180858823E5
:10212000A1F089819A8108960E94D307882311F033
:102130000E94C80889819A81FC01858D2FEF280FA4
:1021400089819A81FC01258F01C006C089819A810D
:10215000FC01858D1816FCF289819A812FEFFC0114
:10216000258F0F900FBE0F900F90DF91CF910895A4
:10217000CF93DF9300D0CDB7DEB79B838A830FB6B2
:10218000F8940F928A819B81FC01928D81E09923C2
:1021900009F080E089830F900FBE89810F900F9026
:1021A0000F90DF91CF910895CF93DF9300D0CDB7FB
:1021B000DEB79B838A838A819B81FC01928D81E0BB
:1021C000992309F080E0898389810F900F900F9007
:1021D000DF91CF910895CF93DF9300D0CDB7DEB7D5
:1021E0009B838A830FB6F8940F928A819B81FC01AE
:1021F000228D8A819B81FC01938D81E0291709F052
:1022000080E089830F900FBE89810F900F900F900F
:10221000DF91CF910895CF93DF9300D0CDB7DEB794
:102220009B838A838A819B81FC01228D8A819B8189
:10223000FC01938D81E0291709F080E08983898171
:102240000F900F900F90DF91CF910895CF93DF9370
:102250001F921F92CDB7DEB79A83898389819A81B5
:102260009C012D5F3F4F89819A81FC01328321833C
:1022700089819A812FEF3FEFFC0134832383898189
:102280009A819C012D5F3F4F89819A81FC013683A1
:10229000258389819A819C012D5F3F4F89819A8195
:1022A000FC013087278389819A81FC0110820F907D
:1022B0000F90DF91CF910895CF93DF931F921F92DC
:1022C000CDB7DEB79A83898389819A81FC01118613
:1022D00010860F900F90DF91CF910895CF93DF93E9
:1022E00000D000D0CDB7DEB79C838B837E836D8317
:1022F0008B819C81FC01818192819A838983898170
:102300009A81FC01228133818D819E81FC0133837E
:1023100022838B819C81FC01218132818D819E8170
:10232000FC013583248389819A81FC018281938118
:102330002D813E81FC013583248389819A812D8101
:102340003E81FC01338322838B819C812D813E81E0
:10235000FC01328321838D819E812B813C81FC0194
:10236000318720878B819C81FC01808121E0280FAF
:102370008B819C81FC01208326960FB6F894DEBFEA
:102380000FBECDBFDF91CF910895CF93DF93CDB72F
:10239000DEB728970FB6F894DEBF0FBECDBF9E8381
:1023A0008D8378876F838F819885FC0180819181EF
:1023B0009C838B838B819C818F3FFFEF9F0741F430
:1023C0008D819E81FC01878190859A8389831AC0C3
:1023D0008D819E8103969A83898307C089819A8122
:1023E000FC01828193819A83898389819A81FC018E
:1023F00082819381FC01208131818B819C818217B4
:10240000930760F789819A81FC01228133818F8152
:102410009885FC01338322838F819885FC0182811A
:1024200093812F813885FC01358324838F819885A2
:1024300029813A81FC013583248389819A812F8106
:102440003885FC01338322838F8198852D813E81DD
:10245000FC01318720878D819E81FC01808121E0F4
:10246000280F8D819E81FC01208328960FB6F89459
:10247000DEBF0FBECDBFDF91CF910895CF93DF9325
:1024800000D01F92CDB7DEB79C838B838B819C815C
:10249000FC01828193812B813C81F901248135816A
:1024A000FC01358324838B819C81FC01848195818F
:1024B0002B813C81F90122813381FC01338322830A
:1024C0008B819C81FC01808591859A838983898198
:1024D0009A81FC01218132818B819C8128173907E7
:1024E00051F48B819C81FC012481358189819A8101
:1024F000FC01328321838B819C81FC011186108633
:1025000089819A81FC0180812FEF280F89819A812E
:10251000FC01208389819A81FC0180810F900F90BA
:102520000F900F90DF91CF910895CF93DF93CDB7A8
:10253000DEB727970FB6F894DEBF0FBECDBF9D83E1
:102540008C836E834F838AE190E00E948D159B837C
:102550008A838A819B81009709F477C080917502F4
:1025600090917602009741F48A819B819093760244
:10257000809375020E941B158E81823010F081E0DD
:102580008E838A819B81FC01118E108E8A819B81B2
:102590002E81FC01268B8A819B812F81FC01278B58
:1025A0008A819B812C813D81FC01318320838A813A
:1025B0009B8102960E945C118A819B810C960E94ED
:1025C0005C118A819B812A813B81FC0131872087B4
:1025D0008A819B812A813B81FC01338B228B8E81F6
:1025E000882F90E024E030E0281B390B8A819B8102
:1025F000FC01358724878A819B81FC019689809123
:10260000A802891730F48A819B81FC018689809316
:10261000A8028A819B81AC014E5F5F4F8A819B81BA
:10262000FC018689282F30E0C901880F991F880F87
:10263000991F880F991F820F931F89589D4FBA01C8
:102640000E946E1181E0898302C08FEF89838981A6
:1026500027960FB6F894DEBF0FBECDBFDF91CF91A6
:102660000895CF93DF9300D000D0CDB7DEB79C8321
:102670008B837E836D832091A9023091AA028B8186
:102680009C81820F931F9A83898380917502909118
:10269000760202960E943E12809175029091760217
:1026A00029813A81FC01338322838091A902909190
:1026B000AA0229813A812817390778F48091750296
:1026C000909176029C012E5F3F4F80919D029091E8
:1026D0009E02B9010E94C5110EC0809175029091B1
:1026E00076029C012E5F3F4F80919B0290919C024D
:1026F000B9010E94C5118D819E81009761F0809182
:102700007502909176029C01245F3F4F8D819E81DE
:10271000B9010E94C51126960FB6F894DEBF0FBE10
:10272000CDBFDF91CF910895CF93DF931F921F927A
:10273000CDB7DEB73CC0F8948091A4029091A50279
:10274000FC01868197819A83898389819A810C967D
:102750000E943E12789489819A8102960E943E12CC
:1027600089819A81FC0196898091A802891730F4A9
:1027700089819A81FC0186898093A80289819A8146
:10278000AC014E5F5F4F89819A81FC018689282FB9
:1027900030E0C901880F991F880F991F880F991F72
:1027A000820F931F89589D4FBA010E946E1180912C
:1027B0009F02882309F0BFCF0F900F90DF91CF9138
:1027C0000895CF93DF9300D01F92CDB7DEB70E945C
:1027D00006069C018091AB029091AC02A901481BB6
:1027E000590BCA019093AE028093AD028AC08091CA
:1027F000A9029091AA0201969093AA028093A9023D
:102800008091AD029091AE0201979093AE028093B9
:10281000AD028091A9029091AA020097A9F480913B
:102820009B0290919C029A83898380919D02909152
:102830009E0290939C0280939B0289819A8190933F
:102840009E0280939D0254C053C080919B02909140
:102850009C02FC0185819681FC01868197819C8385
:102860008B838B819C81FC01228133818091A90221
:102870009091AA028217930708F443C0F8948B81C1
:102880009C8102960E943E128B819C81FC0184896E
:102890009589009729F08B819C810C960E943E12AD
:1028A00078948B819C81FC0196898091A80289177C
:1028B00030F48B819C81FC0186898093A8028B81F6
:1028C0009C81AC014E5F5F4F8B819C81FC018689AE
:1028D000282F30E0C901880F991F880F991F880F92
:1028E000991F820F931F89589D4FBA010E946E1144
:1028F00080919B0290919C02FC018081882309F0C9
:10290000A4CF8091AD029091AE02009709F06FCFF5
:102910008091A9029091AA029093AC028093AB029D
:102920000F900F900F900F90DF91CF910895CF935C
:10293000DF931F921F92CDB7DEB70E9494130E94BF
:10294000E1130AC08091A802882309F46FC0809126
:10295000A80281508093A8028091A802282F30E01D
:10296000C901880F991F880F991F880F991F820F1F
:10297000931F89589D4FFC018081882319F3809112
:10298000A802282F30E0C901880F991F880F991FCE
:10299000880F991F820F931F89589D4F9A838983AF
:1029A00089819A81FC0181819281FC01228133819C
:1029B00089819A81FC013283218389819A81FC017A
:1029C0002181328189819A8103962817390769F418
:1029D00089819A81FC0181819281FC01228133816C
:1029E00089819A81FC013283218389819A81FC014A
:1029F00081819281FC0186819781909376028093F8
:102A000075028091750290917602FC0120813181DE
:102A10008091750290917602FC0147898091750240
:102A200090917602642FF901199500000F900F9094
:102A3000DF91CF910895CF93DF931F92CDB7DEB78B
:102A4000198213C08981282F30E0C901880F991F8E
:102A5000880F991F880F991F820F931F89589D4FC8
:102A60000E94261189818F5F89838981823050F38A
:102A700089E892E00E94261182E992E00E942611E4
:102A80008FE992E00E94261189E892E090939C02DF
:102A900080939B0282E992E090939E0280939D0234
:102AA0000F90DF91CF910895CF93DF9300D01F92C5
:102AB0001F92CDB7DEB79D838C838C819D81FC01F5
:102AC00085819681FC01868197819B838A838A8197
:102AD0009B810C960E943E128A819B810C96BC01C0
:102AE0008FE992E00E946E118A819B81FC01268908
:102AF0008091750290917602FC018689281718F062
:102B000081E0898301C0198289810F900F900F9015
:102B10000F900F90DF91CF910895CF93DF9300D066
:102B20001F92CDB7DEB79C838B831A8219820E94D5
:102B300076052091AF1A3091B01A8B819C81820F5B
:102B4000931F811528E1920718F52091AF1A309153
:102B5000B01A8B819C81280F391F8091AF1A9091F8
:102B6000B01A82179307A0F48091AF1A9091B01A0F
:102B700081559D4F9A8389832091AF1A3091B01A65
:102B80008B819C81820F931F9093B01A8093AF1A10
:102B90000E94820589819A810F900F900F900F906B
:102BA000DF91CF910895CF93DF931F921F92CDB7FE
:102BB000DEB79A8389830F900F90DF91CF910895AC
:102BC000CF93DF93CDB7DEB71092B01A1092AF1A41
:102BD000DF91CF910895CF93DF93CDB7DEB780918A
:102BE000AF1A9091B01A20E038E1A901481B590BA7
:102BF000CA01DF91CF910895CF93DF93CDB7DEB7B0
:102C000028970FB6F894DEBF0FBECDBF9C838B8391
:102C10007E836D8358874F838B819C8121E1FC01EA
:102C200020838B819C8101979C838B838B819C81EA
:102C300022E2FC0120838B819C8101979C838B8302
:102C40008B819C8123E3FC0120838B819C810197F4
:102C50009C838B838D819E819A83898329818B813B
:102C60009C81FC0120838B819C8101979C838B83B9
:102C700089819A81892F99279A83898329818B81D8
:102C80009C81FC0120838B819C8101979C838B8399
:102C90008B819C81FC0110828B819C8101979C839C
:102CA0008B838B819C81FC0110828B819C8101979D
:102CB0009C838B838B819C8120E8FC0120838B810A
:102CC0009C8101979C838B838B819C81FC0110826A
:102CD0008B819C8101979C838B838B819C81FC01E0
:102CE00010828B819C8101979C838B838B819C813B
:102CF000FC0110828B819C8101979C838B838B814B
:102D00009C8122E0FC0120838B819C8101979C8324
:102D10008B838B819C8123E0FC0120838B819C81B0
:102D200001979C838B838B819C8124E0FC01208311
:102D30008B819C8101979C838B838B819C8125E077
:102D4000FC0120838B819C8101979C838B838B81E9
:102D50009C8126E0FC0120838B819C8101979C83D0
:102D60008B838B819C8127E0FC0120838B819C815C
:102D700001979C838B838B819C8128E0FC012083BD
:102D80008B819C8101979C838B838B819C8129E023
:102D9000FC0120838B819C8101979C838B838B8199
:102DA0009C8120E1FC0120838B819C8101979C8385
:102DB0008B838B819C8121E1FC0120838B819C8111
:102DC00001979C838B838B819C8122E1FC01208372
:102DD0008B819C8101979C838B838B819C8123E1D8
:102DE000FC0120838B819C8101979C838B838B8149
:102DF0009C8124E1FC0120838B819C8101979C8331
:102E00008B838B819C8125E1FC0120838B819C81BC
:102E100001979C838B838B819C8126E1FC0120831D
:102E20008B819C8101979C838B838B819C8127E183
:102E3000FC0120838B819C8101979C838B838B81F8
:102E40009C8128E1FC0120838B819C8101979C83DC
:102E50008B838B819C8129E1FC0120838B819C8168
:102E600001979C838B838B819C8120E2FC012083D2
:102E70008B819C8101979C838B838B819C8121E238
:102E8000FC0120838B819C8101979C838B838B81A8
:102E90009C8122E2FC0120838B819C8101979C8391
:102EA0008B838B819C8123E2FC0120838B819C811D
:102EB00001979C838B838F8198859A83898329814D
:102EC0008B819C81FC0120838B819C8101979C8359
:102ED0008B8389819A81892F99279A838983298174
:102EE0008B819C81FC0120838B819C8101979C8339
:102EF0008B838B819C8126E2FC0120838B819C81CA
:102F000001979C838B838B819C8127E2FC0120832A
:102F10008B819C8101979C838B838B819C8128E290
:102F2000FC0120838B819C8101979C838B838B8107
:102F30009C8129E2FC0120838B819C8101979C83E9
:102F40008B838B819C8120E3FC0120838B819C817E
:102F500001979C838B838B819C8121E3FC012083DF
:102F60008B819C8101979C838B838B819C8128968C
:102F70000FB6F894DEBF0FBECDBFDF91CF9108959D
:102F8000CF93DF93CDB7DEB70E94C418A0911C0287
:102F9000B0911D02CD91CDBFDD91DEBFFF91EF91CC
:102FA000DF91CF91BF91AF919F918F917F916F9161
:102FB0005F914F913F912F911F910F91FF90EF9053
:102FC000DF90CF90BF90AF909F908F907F906F9049
:102FD0005F904F903F902F901F900F900CBE0F90DE
:102FE0000BBE0F900FBE0F90089581E0DF91CF913F
:102FF0000895CF93DF93CDB7DEB7DF91CF910895DA
:103000000F920FB6F8940F920BB60F920CB60F9268
:103010001F9211242F923F924F925F926F927F9254
:103020008F929F92AF92BF92CF92DF92EF92FF92D8
:103030000F931F932F933F934F935F936F937F93C0
:103040008F939F93AF93BF93CF93DF93EF93FF93B0
:10305000A0911C02B0911D020DB60D920EB60D92FC
:103060000E942007A0911C02B0911D02CD91CDBFFE
:10307000DD91DEBFFF91EF91DF91CF91BF91AF91D5
:103080009F918F917F916F915F914F913F912F9180
:103090001F910F91FF90EF90DF90CF90BF90AF9076
:1030A0009F908F907F906F905F904F903F902F9068
:1030B0001F900F900CBE0F900BBE0F900FBE0F9085
:1030C00008950F920FB6F8940F920BB60F920CB6AC
:1030D0000F921F9211242F923F924F925F926F9204
:1030E0007F928F929F92AF92BF92CF92DF92EF9298
:1030F000FF920F931F932F933F934F935F936F9381
:103100007F938F939F93AF93BF93CF93DF93EF936F
:10311000FF93A0911C02B0911D020DB60D920EB648
:103120000D920E943B060E942007A0911C02B091C4
:103130001D02CD91CDBFDD91DEBFFF91EF91DF91FB
:10314000CF91BF91AF919F918F917F916F915F913F
:103150004F913F912F911F910F91FF90EF90DF9032
:10316000CF90BF90AF909F908F907F906F905F9027
:103170004F903F902F901F900F900CBE0F900BBE62
:103180000F900FBE0F900895CF93DF9300D000D023
:10319000CDB7DEB780E09DE7A0E0B0E089839A83F9
:1031A000AB83BC8389819A81AB81BC81689415F81B
:1031B000B695A795979587951694D1F789839A83A5
:1031C000AB83BC8389819A81AB81BC810197A109C2
:1031D000B10989839A83AB83BC8389818D8389817B
:1031E0009A81AB81BC81892F9A2FAB2FBB27898312
:1031F0009A83AB83BC8389818E8389E990E02E8199
:10320000FC01208388E990E02D81FC0120838BE084
:103210008D8381E990E02D81FC01208381E790E09E
:10322000FC0180818D838D8182608D8381E790E0B8
:103230002D81FC01208326960FB6F894DEBF0FBEC9
:10324000CDBFDF91CF9108950E9461181895CF935B
:10325000DF93CDB7DEB72E970FB6F894DEBF0FBE63
:10326000CDBF9E838D834F83588769877A878F81EF
:103270009885A985BA85689413F8B695A79597950A
:1032800087951694D1F72D813E81990140E050E059
:10329000BC01CD010E94E91ADA01C9010197A10917
:1032A000B10989839A83AB83BC8325EC30E08981A3
:1032B0009A81AB81BC81892F9A2FAB2FBB27F90153
:1032C000808384EC90E02981FC01208381EC90E0F4
:1032D00028E1FC01208382EC90E026E0FC012083C1
:1032E00080EC90E020EC30E0F90120812D7FFC01A2
:1032F00020832E960FB6F894DEBF0FBECDBFDF91B0
:10330000CF910895CF93DF931F92CDB7DEB7898316
:10331000000080EC90E0FC018081882F90E08072BA
:1033200099270097B1F386EC90E02981FC01208376
:103330000F90DF91CF910895CF93DF931F92CDB778
:10334000DEB78983000080EC90E0FC018081882F4B
:1033500090E0807299270097B1F386EC90E0298184
:10336000FC0120830F90DF91CF910895CF93DF93DD
:10337000CDB7DEB7000080EC90E0FC0180818823AF
:10338000D4F786EC90E0FC018081DF91CF91089525
:10339000CF93DF9300D0CDB7DEB79A8389836B8359
:1033A00089819A818C54954E2B81FC0120830F904A
:1033B0000F900F90DF91CF910895CF93DF931F92DD
:1033C0001F92CDB7DEB79A83898389819A818C5405
:1033D000954EFC0180810F900F90DF91CF91089561
:1033E000CF93DF93CDB7DEB786E490E0FC01808118
:1033F000DF91CF9108951F920F9200905F000F927E
:10340000112400905B000F922F933F934F935F9393
:103410006F937F938F939F93AF93BF93EF93FF939C
:10342000CF93DF9300D0CDB7DEB7198286E091E06D
:10343000FC018081882F90E02091C81A222F30E073
:10344000022E02C0959587950A94E2F7817099271C
:10345000009749F00E94F0198A838EE290E02FEFE6
:10346000FC0120831DC00E94F0198B839B818A81FF
:10347000891738F49B818A81F92FF81B8F2F80934D
:10348000B11A8EE290E0FC0110828091BA1A9091FC
:10349000BB1A20E040E050E060E070E00E945E0D6A
:1034A0000F900F900F90DF91CF91FF91EF91BF910F
:1034B000AF919F918F917F916F915F914F913F91CC
:1034C0002F910F9000925B000F9000925F000F9081
:1034D0001F901895CF93DF93CDB7DEB78DE790E0BF
:1034E000FC01108287E091E0FC01108287E290E00D
:1034F000FC01108288E290E0FC0110828DE690E0F1
:103500002FEFFC01208388E690E027E0FC01208378
:1035100084E490E0FC01108285E490E025E0FC0169
:103520002083DF91CF910895CF93DF9300D01F9236
:10353000CDB7DEB79C838B830E946A1A43E060E0BC
:1035400081E00E94030C9093BB1A8093BA1A809179
:10355000BA1A9091BB1A009759F08091BA1A9091BB
:10356000BB1A20E040E050E060E070E00E94BA0C3E
:103570001092C81A1A82198226C089818093C81AAB
:1035800088E290E021E030E0098002C0220F331F82
:103590000A94E2F7FC0120838091BA1A9091BB1A39
:1035A00020E04FEF5FEF60E070E00E94B70D2091E8
:1035B000B11A89819A81622F0E94C81989819A81E2
:1035C00001969A83898389819A8182309105ACF230
:1035D000D1CFA1E21A2EAA1BBB1BFD010DC0AA1F51
:1035E000BB1FEE1FFF1FA217B307E407F50720F06C
:1035F000A21BB30BE40BF50B661F771F881F991FE7
:103600001A9469F760957095809590959B01AC012F
:10361000BD01CF010895FB01DC0102C001900D92B4
:1036200041505040D8F70895DC0101C06D934150DE
:103630005040E0F70895FB01DC014150504048F054
:1036400001900D920020C9F701C01D9241505040D9
:10365000E0F70895FB019F01E8944230C4F0453241
:10366000B4F44A3029F497FB1EF4909581959F4F4E
:10367000642F77270E945B1B805D8A330CF0895D85
:103680008193CB010097A1F716F45DE2519310826C
:10369000C9010C944B1BDC01FC01672F719177234E
:1036A000E1F7329704C07C916D9370836291AE17FD
:1036B000BF07C8F30895AA1BBB1B51E107C0AA1F8F
:1036C000BB1FA617B70710F0A61BB70B881F991FC3
:1036D0005A95A9F780959095BC01CD010895F8946D
:0236E000FFCF1A
:1036E200FFFF543000303132333435363738394108
:0A36F200424344454649444C45005C
:00000001FF
