:100000000C9472000C9493000C9493000C94930045
:100010000C9493000C9493000C9493000C94930014
:100020000C9493000C9493000C9493000C94101E69
:100030000C9493000C9493000C9493000C949300F4
:100040000C9493000C9493000C9493000C949300E4
:100050000C9493000C9493000C9493000C949300D4
:100060000C9493000C9493000C9493000C949300C4
:100070000C9493000C9493000C9493000C949300B4
:100080000C9420180C9493000C9493000C949300FF
:100090000C94D6180C9493000C9493000C94930039
:1000A0000C9493000C9493000C9493000C94930084
:1000B0000C9493000C9493000C9493000C94930074
:1000C0000C9493000C9493000C94E1010C94930015
:1000D0000C9493000C9493000C9493000C94930054
:1000E0000C94930011241FBECFEFD1E2DEBFCDBF31
:1000F00000E00CBF12E0A0E0B2E0EEE5F1E400E0C9
:100100000BBF02C007900D92A432B107D9F71AE1D4
:10011000A4E2B2E001C01D92A93DB107E1F70E943F
:10012000AC000C94AD200C940000DF93CF93CDB7BE
:10013000DEB78091240290912502019690932502CA
:1001400080932402CF91DF910895DF93CF93CDB7B1
:10015000DEB7CF91DF910895AF92BF92CF92DF9239
:10016000EF92FF920F93DF93CF9300D000D0CDB7E3
:10017000DEB78FE38D838EEF8E83CE0105969A8353
:100180008983CE01059601969C838B838AE290E059
:100190002FEFFC0120838DE290E02FEFFC01208304
:1001A00087E091E0FC0110828BE290E0FC0110827C
:1001B0008EE290E0FC01108288E091E022E0FC01F8
:1001C00020830E94320281E292E040E052E02B81E3
:1001D0003C81BA014DE354E001E0EE24FF24CC243D
:1001E000DD24AA24BB240E94420289EA9EE143E066
:1001F00052E02B813C81BA014DE354E001E0EE2452
:10020000FF24CC24DD24AA24BB240E9442028EE4D5
:1002100099E146E052E02B813C81BA014DE354E084
:1002200001E0EE24FF24CC24DD24AA24BB240E9478
:10023000420289EE99E149E052E02B813C81BA010A
:100240004DE354E001E0EE24FF24CC24DD24AA2475
:10025000BB240E9442020E94370580E090E026966F
:100260000FB6F894DEBF0FBECDBFCF91DF910F91D7
:10027000FF90EF90DF90CF90BF90AF900895DF9305
:10028000CF93CDB7DEB762970FB6F894DEBF0FBE3F
:10029000CDBF9A8B898BCE0101962CE032E040E1F4
:1002A000F90100802F5F3F4FFC0100820196415011
:1002B0004423B1F789899A89892F992782958F706C
:1002C0009E012F5F3F4F820F931FFC0180810E9490
:1002D000901889899A8980709F70892F990F990B3E
:1002E0009E012F5F3F4F820F931FFC0180810E9470
:1002F000901889899A89807F9070959587959595B2
:10030000879595958795959587959E012F5F3F4F8A
:10031000820F931FFC0180810E94901889899A891D
:100320008F7090709E012F5F3F4F820F931FFC01D3
:1003300080810E94901862960FB6F894DEBF0FBEBF
:10034000CDBFCF91DF910895DF93CF93CDB7DEB7C7
:100350002D970FB6F894DEBF0FBECDBF8D87CE01AF
:10036000039660E070E04AE050E00E9452208D85E4
:10037000882F90E09E012D5F3F4FB9014AE050E089
:100380000E946820CE0103969A8389830BC08981DD
:100390009A81FC0180810E94181989819A810196B5
:1003A0009A83898389819A81FC018081882379F7E6
:1003B0002D960FB6F894DEBF0FBECDBFCF91DF9163
:1003C00008951F920F920FB60F9200905B000F924C
:1003D00011242F933F938F939F93EF93FF93DF937A
:1003E000CF93CDB7DEB785E290E025E230E0F901AA
:1003F00020812095FC01208384E990E0FC0110829B
:1004000085E990E0FC011082CF91DF91FF91EF919F
:100410009F918F913F912F910F9000925B000F90D1
:100420000FBE0F901F901895DF93CF93CDB7DEB717
:1004300086E490E0FC018081882F90E0CF91DF91ED
:100440000895DF93CF930F920F92CDB7DEB79A83C3
:10045000898380E895E240E054E264EF70E00E9416
:100460002318FFCFDF93CF93CDB7DEB784E290E0C0
:100470002FEFFC01208385E290E0FC011082CF91F8
:10048000DF910895AF92BF92CF92DF92EF92FF92E9
:100490000F931F93DF93CF93CDB7DEB764970FB65B
:1004A000F894DEBF0FBECDBF9F838E8379876887A8
:1004B0005B874A873D872C870E87F88AEF86DA8A22
:1004C000C98ABC8AAB8A8A859B8529893A89B90100
:1004D0000E94D1099C838B838B819C81009709F4B6
:1004E00099C0EB81FC812789308D8A859B85019796
:1004F000820F931F9A8389838B819C8128853985FC
:10050000EB89FC89AA85BB85B9014E859F018D01C8
:100510000E94E80889819A812E813F814C855D8502
:10052000B9010E942615EB81FC81918380838F8520
:100530009889009731F0EF85F8898B819C819183B0
:1005400080830FB6F8940F92809128028F5F80937A
:1005500028028091260290912702009769F48B81EE
:100560009C819093270280932602809128028130FB
:10057000A9F40E94430912C080912D02882371F4CE
:10058000E0912602F091270296898E85891730F036
:100590008B819C819093270280932602EB81FC81C2
:1005A000968980912B02891728F4EB81FC8186893A
:1005B00080932B02809132028F5F80933202EB8115
:1005C000FC81968980912C02891728F4EB81FC81AB
:1005D000868980932C02EB81FC818689282F30E06C
:1005E000C901880F991F880F991F880F991F820FC3
:1005F000931FAC014D5C5D4F8B819C819C012E5FF4
:100600003F4FCA01B9010E94DD1081E08D830F9038
:100610000FBE02C08FEF8D838D81813071F4809188
:100620002D02882351F0E0912602F091270296894D
:100630008E85981710F40E9401178D8164960FB66D
:10064000F894DEBF0FBECDBFCF91DF911F910F9108
:10065000FF90EF90DF90CF90BF90AF900895DF9321
:10066000CF93CDB7DEB728970FB6F894DEBF0FBE95
:10067000CDBF9E838D8378876F8319820E947A0510
:10068000ED81FE81208131818F819885820F931FBA
:100690009C838B83ED81FE812081318180912902B1
:1006A00090912A0282179307A8F4ED81FE812081A0
:1006B00031818B819C818217930700F5209129025B
:1006C00030912A028B819C8128173907B8F481E088
:1006D000898314C0ED81FE81208131818B819C81D1
:1006E0008217930748F02091290230912A028B81CA
:1006F0009C812817390710F481E08983ED81FE8100
:100700008B819C81918380838981882359F080919A
:1007100026029091270202960E9494118B819C815F
:100720000E9487090E9486058A838A81882311F4A2
:100730000E94011728960FB6F894DEBF0FBECDBFFA
:10074000CF91DF910895DF93CF9300D00F920F9256
:10075000CDB7DEB79D838C8319828C819D810097F4
:10076000D1F00E947A052091290230912A028C81D1
:100770009D81820F931F9B838A8380912602909193
:10078000270202960E9494118A819B810E94870908
:100790000E94860589838981882311F40E940117AC
:1007A0000F900F900F900F900F90CF91DF910895C1
:1007B000DF93CF9300D000D0CDB7DEB79C838B837F
:1007C0000FB6F8940F9220912602309127028B8168
:1007D0009C818217930711F41C821B828B819C8160
:1007E000009739F480912602909127029E838D8391
:1007F00004C08B819C819E838D838D819E819A8391
:10080000898389819A8102960E949411E981FA81F3
:1008100084899589009729F089819A810C960E9494
:10082000941189819A819C012E5F3F4F86E792E067
:10083000B9010E94DD100F900FBE8B819C81009743
:10084000A1F480912D02882319F00E9401170DC098
:100850009091760280912802981729F4109227022D
:100860001092260202C00E94190726960FB6F8942D
:10087000DEBF0FBECDBFCF91DF910895DF93CF9341
:1008800000D00F920F92CDB7DEB79D838C831B8271
:100890008C819D819A838983E981FA818285938500
:1008A00022E08637920781F4E981FA81848995896B
:1008B00022E08D36920741F0E981FA818489958999
:1008C000009711F481E08B838B810F900F900F9034
:1008D0000F900F90CF91DF910895DF93CF9300D0C9
:1008E0000F92CDB7DEB79C838B838B819C819A83DB
:1008F000898389819A81009709F44CC0209126024E
:100900003091270289819A818217930709F442C0A6
:100910000FB6F8940F9289819A810E943E0481302B
:10092000B9F589819A8102960E949411E981FA8130
:10093000968980912C02891728F4E981FA818689A9
:1009400080932C02E981FA818689282F30E0C90141
:10095000880F991F880F991F880F991F820F931F67
:10096000AC014D5C5D4F89819A819C012E5F3F4FA8
:10097000CA01B9010E94DD10E981FA819689E091EE
:100980002602F09127028689981710F00E9401171D
:100990000F900FBE0F900F900F900F90CF91DF919F
:1009A0000895DF93CF9300D000D0CDB7DEB79E83FC
:1009B0008D831C828D819E819B838A8319828A818B
:1009C0009B810E943E04813009F047C080912E0235
:1009D0008823C9F5EA81FB819689E0912602F0918E
:1009E000270286891C82981710F081E08C838A8107
:1009F0009B8102960E949411EA81FB8196898091E5
:100A00002C02891728F4EA81FB81868980932C02C5
:100A1000EA81FB818689282F30E0C901880F991F60
:100A2000880F991F880F991F820F931FAC014D5C8F
:100A30005D4F8A819B819C012E5F3F4FCA01B901A6
:100A40000E94DD100AC08A819B819C01245F3F4F78
:100A50008DE692E0B9010E94DD108C8126960FB6DA
:100A6000F894DEBF0FBECDBFCF91DF910895AF9256
:100A7000BF92CF92DF92EF92FF920F93DF93CF93CB
:100A80000F92CDB7DEB787ED98E02EE132E0B901E5
:100A900045E550E020E030E000E0EE24FF24CC24E7
:100AA000DD24AA24BB240E944202898389818130EB
:100AB00051F4F89481E080932D0210922A02109252
:100AC00029020E94C1160F90CF91DF910F91FF90E4
:100AD000EF90DF90CF90BF90AF900895DF93CF93CA
:100AE000CDB7DEB7F89410922D020E94FA16CF917E
:100AF000DF910895DF93CF93CDB7DEB780912E02BB
:100B00008F5F80932E02CF91DF910895DF93CF9373
:100B100000D00F92CDB7DEB71A820FB6F8940F92BD
:100B200080912E02815080932E0280912E02882384
:100B300009F06CC080912802882309F467C01982EB
:100B400041C0E0917202F0917302868197819C838B
:100B50008B838B819C810C960E9494118B819C814C
:100B600002960E949411EB81FC81968980912C025F
:100B7000891728F4EB81FC81868980932C02EB8114
:100B8000FC818689282F30E0C901880F991F880FC2
:100B9000991F880F991F820F931F8D5C9D4F2B818A
:100BA0003C812E5F3F4FB9010E94DD10EB81FC813B
:100BB0009689E0912602F09127028689981710F015
:100BC00081E0898380916D02882309F0BACF8091FA
:100BD0002F02882371F007C00E94450680912F02E2
:100BE000815080932F0280912F028823A9F781E002
:100BF00089838981813021F080913002813031F404
:100C000081E08A83109230020E9401170F900FBE7C
:100C10008A810F900F900F900F90CF91DF910895E0
:100C2000DF93CF930F920F92CDB7DEB70FB6F89444
:100C30000F928091290290912A029A8389830F90C2
:100C40000FBE89819A810F900F90CF91DF91089507
:100C5000DF93CF9300D0CDB7DEB719828091290200
:100C600090912A029B838A838A819B810F900F90A7
:100C70000F90CF91DF910895DF93CF93CDB7DEB77B
:100C800080912802CF91DF910895DF93CF9300D018
:100C900000D0CDB7DEB780912E02882309F0BBC00B
:100CA0008091290290912A02019690932A028093C2
:100CB00029028091290290912A020097D1F5809112
:100CC000690290916A029C838B8380916B02909160
:100CD0006C0290936A02809369028B819C8190934D
:100CE0006C0280936B02809131028F5F809331029E
:100CF000E0916902F0916A028081882339F48FEFD4
:100D00009FEF90931D0280931C0213C0E091690233
:100D1000F0916A020580F681E02D868197819E839D
:100D20008D83ED81FE818281938190931D0280935A
:100D30001C022091290230912A0280911C0290917C
:100D40001D022817390708F46BC0E0916902F09181
:100D50006A028081882339F48FEF9FEF90931D0200
:100D600080931C025DC0E0916902F0916A020580E7
:100D7000F681E02D868197819E838D83ED81FE81B2
:100D8000828193819A8389832091290230912A025A
:100D900089819A812817390738F489819A8190933B
:100DA0001D0280931C023CC08D819E8102960E9490
:100DB0009411ED81FE8184899589009729F08D81B8
:100DC0009E810C960E949411ED81FE8196898091FE
:100DD0002C02891728F4ED81FE81868980932C02EC
:100DE000ED81FE818689282F30E0C901880F991F87
:100DF000880F991F880F991F820F931FAC014D5CBC
:100E00005D4F8D819E819C012E5F3F4FCA01B901CC
:100E10000E94DD109ACF80912F028F5F80932F0266
:100E200026960FB6F894DEBF0FBECDBFCF91DF91EF
:100E30000895DF93CF930F920F92CDB7DEB78091D5
:100E40002E02882321F081E08093300270C0E0916F
:100E50002602F091270220813181E0912602F09153
:100E600027028789908D8217930790F08091260240
:100E7000909127022091260230912702275E3F4F52
:100E8000B9010E94A50080912C02815080932C0210
:100E900080912C02282F30E0C901880F991F880FFC
:100EA000991F880F991F820F931FFC01ED5CFD4F66
:100EB0008081882341F380912C02282F30E0C901E2
:100EC000880F991F880F991F880F991F820F931FF2
:100ED0008D5C9D4F9A838983E981FA810180F2813B
:100EE000E02D82819381E981FA8192838183E98176
:100EF000FA812181328189819A81039628173907E5
:100F000059F4E981FA810180F281E02D8281938197
:100F1000E981FA8192838183E981FA810180F281FA
:100F2000E02D8681978190932702809326020F906F
:100F30000F90CF91DF910895DF93CF9300D000D031
:100F4000CDB7DEB79C838B837E836D834B815C81C1
:100F500080912602909127029C01245F3F4FCA0195
:100F6000B9010E94281180912602909127020296D1
:100F70000E9494118D819E812FEF8F3F920769F41B
:100F800080912602909127029C012E5F3F4F86E7B9
:100F900092E0B9010E94DD100EC02091290230912B
:100FA0002A028D819E81820F931F9A838983898172
:100FB0009A810E94870926960FB6F894DEBF0FBE6D
:100FC000CDBFCF91DF910895DF93CF9300D00F92E3
:100FD0000F92CDB7DEB79D838C83EC81FD810580B8
:100FE000F681E02D868197819B838A838A819B810C
:100FF0000C960E94941180912E02882361F58A81BB
:101000009B8102960E949411EA81FB8196898091CE
:101010002C02891728F4EA81FB81868980932C02AF
:10102000EA81FB818689282F30E0C901880F991F4A
:10103000880F991F880F991F820F931FAC014D5C79
:101040005D4F8A819B819C012E5F3F4FCA01B90190
:101050000E94DD100AC08A819B819C01245F3F4F62
:101060008DE692E0B9010E94DD10EA81FB8196894C
:10107000E0912602F09127028689981718F081E006
:10108000898301C0198289810F900F900F900F9072
:101090000F90CF91DF910895DF93CF930F920F922E
:1010A000CDB7DEB79A83898380913102E981FA81D5
:1010B00080838091290290912A02E981FA819283AA
:1010C00081830F900F90CF91DF910895DF93CF939D
:1010D00000D00F920F92CDB7DEB79B838A837D83BA
:1010E0006C830FB6F8940F92EC81FD818081918121
:1010F0002FEF8F3F920711F4198244C0EA81FB81E0
:10110000908180913102981771F0EA81FB812181F1
:1011100032818091290290912A028217930718F058
:1011200081E089832FC02091290230912A02EA812F
:10113000FB8181819281281B390BEC81FD818081AB
:10114000918128173907E0F4EC81FD8140815181BC
:10115000EA81FB81218132818091290290912A02CA
:10116000B901681B790BCB01840F951FEC81FD81C0
:10117000918380838A819B810E944C08198202C0DE
:1011800081E089830F900FBE89810F900F900F909F
:101190000F900F90CF91DF910895DF93CF93CDB74C
:1011A000DEB781E080933002CF91DF910895DF9325
:1011B000CF930F920F92CDB7DEB79A8389830E94A7
:1011C0008009809133028230D0F30E940117F7CF5B
:1011D0000F931F93DF93CF93CDB7DEB729970FB649
:1011E000F894DEBF0FBECDBF9A8389837C836B8367
:1011F0004D833F832E831987088789819A81499679
:101200002B813C81B90140E150E00E945920E981E5
:10121000FA8110A68D81843010F083E08D83E981FE
:10122000FA818D81868BE981FA818D8181A78981FF
:101230009A8102960E94CC1089819A810C960E9414
:10124000CC10E981FA8189819A81918780878D818B
:10125000282F30E084E090E0821B930BE981FA8133
:1012600095878487E981FA8189819A81938B828B22
:1012700029960FB6F894DEBF0FBECDBFCF91DF9198
:101280001F910F910895DF93CF930F92CDB7DEB7E3
:10129000198213C08981282F30E0C901880F991F56
:1012A000880F991F880F991F820F931F8D5C9D4F88
:1012B0000E94A11089818F5F89838981843050F3D6
:1012C00087E592E00E94A11080E692E00E94A110C2
:1012D0008DE692E00E94A11086E792E00E94A110A4
:1012E00087E592E090936A028093690280E692E03B
:1012F00090936C0280936B020F90CF91DF910895D1
:10130000DF93CF93CDB7DEB7CF91DF910895DF9311
:10131000CF930F920F92CDB7DEB79A838983E09176
:101320002602F091270289819A81938382832091FA
:10133000290230912A0289819A818217930770F4D9
:1013400080916B0290916C022091260230912702CD
:101350002E5F3F4FB9010E9428111EC040916902C3
:1013600050916A0280912602909127029C012E5F83
:101370003F4FCA01B9010E94281120911C023091EF
:101380001D0289819A818217930730F489819A819D
:1013900090931D0280931C020F900F90CF91DF91CC
:1013A0000895DF93CF93CDB7DEB728970FB6F894A3
:1013B000DEBF0FBECDBF9C838B837E836D838AE2AD
:1013C00090E00E94B9149A83898389819A81009759
:1013D00069F18D819E81009739F48B819C810E94F7
:1013E000B91498878F8304C08D819E8198878F83DD
:1013F000E981FA818F819885908F878BE981FA81C5
:101400008789908D009739F489819A810E94FF1411
:101410001A8219820BC0E981FA818789908D2B810C
:101420003C8165EA70E0A9010E94522089819A817D
:1014300028960FB6F894DEBF0FBECDBFCF91DF91D7
:101440000895DF93CF9300D00F92CDB7DEB79A8384
:1014500089831C821B820AC089819A8101969A83A2
:1014600089838B819C8101969C838B83E981FA819E
:101470008081853A89F38B819C810F900F900F902A
:101480000F90CF91DF910895DF93CF93CDB7DEB763
:1014900029970FB6F894DEBF0FBECDBF9F838E8312
:1014A0008E819F81009739F48091260290912702C6
:1014B0009987888704C08E819F81998788878885CE
:1014C00099859D838C83EC81FD818789908D9B8399
:1014D0008A838A819B810E94210A89838981299636
:1014E0000FB6F894DEBF0FBECDBFCF91DF91089548
:1014F000DF93CF930F920F92CDB7DEB78091260284
:10150000909127029A83898389819A810F900F9005
:10151000CF91DF910895DF93CF9300D00F92CDB795
:10152000DEB79C838B838B819C819A8389838B819B
:101530009C81009709F46DC0E981FA819689E09158
:101540002602F09127028689981708F062C0E09180
:101550002602F09127028689282F30E084E090E06F
:10156000821B930BE981FA8195878487E981FA814F
:1015700042855385E981FA818689282F30E0C901A7
:10158000880F991F880F991F880F991F820F931F2B
:101590008D5C9D4F48175907A1F589819A81029664
:1015A0000E949411E0912602F09127028689E98138
:1015B000FA81868BE981FA81968980912C028917BC
:1015C00028F4E981FA81868980932C02E981FA81E5
:1015D0008689282F30E0C901880F991F880F991F2D
:1015E000880F991F820F931FAC014D5C5D4F89815D
:1015F0009A819C012E5F3F4FCA01B9010E94DD1004
:1016000008C0E0912602F09127028689E981FA81DB
:10161000868B0F900F900F900F90CF91DF910895D0
:10162000DF93CF9300D00F92CDB7DEB79C838B832F
:101630008B819C819A8389838B819C81009709F49B
:1016400047C0E981FA819689E981FA8181A59817D5
:1016500009F43EC089819A8102960E949411E98121
:10166000FA8181A5E981FA81868BE981FA818689EF
:10167000282F30E084E090E0821B930BE981FA810F
:1016800095878487E981FA81968980912C02891750
:1016900028F4E981FA81868980932C02E981FA8114
:1016A0008689282F30E0C901880F991F880F991F5C
:1016B000880F991F820F931FAC014D5C5D4F89818C
:1016C0009A819C012E5F3F4FCA01B9010E94DD1033
:1016D0000F900F900F900F90CF91DF910895DF93AF
:1016E000CF9300D0CDB7DEB79A8389836B830FB6D3
:1016F000F8940F92E981FA8140815181E981FA8160
:10170000838D282F30E0E981FA81848D882F90E045
:10171000BC01269FC001279F900D369F900D11247C
:10172000840F951FE981FA8193838283E981FA818D
:10173000128EE981FA8180819181E981FA81958314
:101740008483E981FA8140815181E981FA81838D25
:10175000882F90E09C0121503040E981FA81848DEE
:10176000882F90E0BC01269FC001279F900D369FD7
:10177000900D1124840F951FE981FA819783868348
:10178000E981FA818FEF858FE981FA818FEF868F6A
:101790008B81882379F4E981FA8180858823A1F0FF
:1017A00089819A8108960E94E407813069F40E9439
:1017B00001170AC089819A8108960E94A110898127
:1017C0009A8141960E94A1100F900FBE81E00F9068
:1017D0000F900F90CF91DF910895DF93CF93CDB706
:1017E000DEB729970FB6F894DEBF0FBECDBF8F834B
:1017F000688749871A8219828F81882309F43FC03C
:101800008FE190E00E94B9149E838D838D819E812B
:101810000097A9F18F81282F30E08885882F90E0EC
:10182000AC01249FC001259F900D349F900D112481
:1018300001969C838B838B819C810E94B914ED81DE
:10184000FE8191838083ED81FE818081918100976B
:1018500091F0ED81FE818F81838FED81FE818885FE
:10186000848F8D819E8161E00E946F0B8D819E81AE
:101870009A83898304C08D819E810E94FF1489818F
:101880009A8129960FB6F894DEBF0FBECDBFCF91D7
:10189000DF910895DF93CF9300D0CDB7DEB78B8370
:1018A0008FE190E00E94B9149A83898389819A819B
:1018B0000097A9F1E981FA8113821282E981FA8104
:1018C00011821082E981FA8115821482E981FA81FC
:1018D00017821682E981FA81128EE981FA8181E00C
:1018E000838FE981FA81148EE981FA818FEF858FE8
:1018F000E981FA818FEF868F89819A8108960E940B
:10190000A11089819A8141960E94A11089819A81B2
:1019100060E070E040E050E020E00E94970C898198
:101920009A810F900F900F90CF91DF910895DF93E0
:10193000CF93CDB7DEB72C970FB6F894DEBF0FBEAE
:10194000CDBF9E838D8378876F835A8749872B8786
:1019500019820FB6F8940F92ED81FE81928DED8180
:10196000FE81838D9817D8F48D819E812F813885D3
:10197000B9014B850E94F60EED81FE818189882395
:1019800049F08D819E8141960E94E407813011F4D7
:101990000E9401170F900FBE81E08C875CC0898583
:1019A0009A85009721F40F900FBE1C8654C0898140
:1019B000882331F4CE0102960E944C0881E089838D
:1019C0000F900FBE0E947A050FB6F8940F92ED812A
:1019D000FE81858D8F3F19F4ED81FE81158EED819D
:1019E000FE81868D8F3F19F4ED81FE81168E0F905A
:1019F0000FBECE0102969E01275F3F4FB9010E94A4
:101A00006608882309F58D819E810E946A108823CB
:101A1000A1F08D819E81089629853A85B9010E94A1
:101A20009C078D819E810E94E40F0E948605882379
:101A300009F08FCF0E9401178CCF8D819E810E946B
:101A4000E40F0E94860585CF8D819E810E94E40F60
:101A50000E9486051C868C852C960FB6F894DEBFF6
:101A60000FBECDBFCF91DF910895DF93CF93CDB758
:101A7000DEB729970FB6F894DEBF0FBECDBF9C83AB
:101A80008B837E836D8358874F8329871982EB81EF
:101A9000FC81928DEB81FC81838D981760F58B81A1
:101AA0009C812D813E81B90149850E94F60EEB8112
:101AB000FC81868D8F3FA9F4EB81FC81818988238D
:101AC000B9F08B819C8141960E94E407882381F0C4
:101AD0008F819885009761F0EF81F88581E08083A0
:101AE00007C0EB81FC81868D8F5FEB81FC81868F47
:101AF00081E08A8301C01A828A8129960FB6F89400
:101B0000DEBF0FBECDBFCF91DF910895DF93CF939E
:101B1000CDB7DEB72E970FB6F894DEBF0FBECDBFA0
:101B200098878F837A8769875C874B872D871B828D
:101B30000FB6F8940F92EF81F885828D882309F40F
:101B40004BC0EF81F885868197819A8389838F8145
:101B5000988529853A85B9010E949C0F8D85882337
:101B600011F5EF81F885828D8150EF81F885828FA4
:101B7000EF81F88580819181009731F40E94780A85
:101B8000EF81F88593838283EF81F88580858823B0
:101B9000F1F08F81988508960E94E4078130B9F4AE
:101BA0000E94011714C0EF81F88589819A8197837B
:101BB0008683EF81F8858189882349F08F81988514
:101BC00041960E94E407882311F00E9401170F90AC
:101BD0000FBE81E08E876DC08B859C85009721F4B8
:101BE0000F900FBE1E8665C08B81882331F4CE0115
:101BF00004960E944C0881E08B830F900FBE0E94D8
:101C00007A050FB6F8940F92EF81F885858D8F3F96
:101C100019F4EF81F885158EEF81F885868D8F3F59
:101C200019F4EF81F885168E0F900FBECE01049641
:101C30009E01255F3F4FB9010E946608882391F5F8
:101C40008F8198850E943910882329F1EF81F885CA
:101C500080819181009759F40FB6F8940F92EF812B
:101C6000F885828193810E948B0A0F900FBE8F812D
:101C7000988541962B853C85B9010E949C078F81F0
:101C800098850E94E40F0E948605882309F050CFB2
:101C90000E9401174DCF8F8198850E94E40F0E940A
:101CA000860546CF8F8198850E94E40F0E948605A5
:101CB0001E868E852E960FB6F894DEBF0FBECDBF62
:101CC000CF91DF910895DF93CF93CDB7DEB72897FB
:101CD0000FB6F894DEBF0FBECDBF9C838B837E838F
:101CE0006D8358874F831982EB81FC81828D882315
:101CF00091F18B819C812D813E81B9010E949C0FC5
:101D0000EB81FC81828D8150EB81FC81828FEB81A4
:101D1000FC81858D8F3FA9F4EB81FC818085882330
:101D2000B9F08B819C8108960E94E407882381F09A
:101D30008F819885009761F0EF81F88581E080833D
:101D400007C0EB81FC81858D8F5FEB81FC81858FE6
:101D500081E08A8301C01A828A8128960FB6F8949E
:101D6000DEBF0FBECDBFCF91DF910895DF93CF933C
:101D700000D0CDB7DEB79B838A830FB6F8940F925D
:101D8000EA81FB81828D89830F900FBE89810F903C
:101D90000F900F90CF91DF910895DF93CF9300D0F4
:101DA000CDB7DEB79B838A83EA81FB81828D8983ED
:101DB00089810F900F900F90CF91DF910895DF935D
:101DC000CF930F920F92CDB7DEB79A838983E981C3
:101DD000FA81808191810E94FF1489819A810E94F9
:101DE000FF140F900F90CF91DF910895DF93CF9361
:101DF00000D00F920F92CDB7DEB79A8389837C8390
:101E00006B834D83E981FA81848D882391F4E98184
:101E1000FA8180819181009709F07FC0E981FA8180
:101E2000828193810E94100BE981FA8113821282D0
:101E300074C08D81882399F5E981FA816481758167
:101E4000E981FA81848D482F50E02B813C81CB01C0
:101E5000B9010E944920E981FA8124813581E98113
:101E6000FA81848D882F90E0820F931FE981FA8197
:101E700095838483E981FA8124813581E981FA811E
:101E8000828193812817390708F447C0E981FA81D4
:101E900080819181E981FA81958384833EC0E981C3
:101EA000FA8166817781E981FA81848D482F50E03B
:101EB0002B813C81CB01B9010E944920E981FA8143
:101EC00026813781E981FA81848D882F90E0909571
:101ED00081959F4F820F931FE981FA8197838683B3
:101EE000E981FA8126813781E981FA8180819181B6
:101EF0002817390790F4E981FA8122813381E98139
:101F0000FA81848D882F90E0909581959F4F820F64
:101F1000931FE981FA8197838683E981FA81828D13
:101F20008F5FE981FA81828F0F900F900F900F9051
:101F30000F90CF91DF910895DF93CF9300D00F9250
:101F4000CDB7DEB79A8389837C836B83E981FA817D
:101F500080819181009789F1E981FA812681378119
:101F6000E981FA81848D882F90E0820F931FE981A7
:101F7000FA8197838683E981FA8126813781E98115
:101F8000FA81828193812817390740F0E981FA812B
:101F900080819181E981FA8197838683E981FA8141
:101FA00046815781E981FA81848D282F30E08B8129
:101FB0009C81BA01A9010E9449200F900F900F90B7
:101FC0000F90CF91DF910895DF93CF930F920F92EF
:101FD000CDB7DEB79A8389830FB6F8940F9215C0F8
:101FE000E981FA8181898823A9F089819A814196C2
:101FF0000E94E407882311F00E94CD08E981FA814C
:10200000868D8150E981FA81868FE981FA81868DFA
:10201000181634F3E981FA818FEF868F0F900FBE87
:102020000FB6F8940F9215C0E981FA818085882354
:10203000A9F089819A8108960E94E407882311F00B
:102040000E94CD08E981FA81858D8150E981FA816C
:10205000858FE981FA81858D181634F3E981FA813B
:102060008FEF858F0F900FBE0F900F90CF91DF9164
:102070000895DF93CF9300D0CDB7DEB79B838A83DB
:102080000FB6F8940F92EA81FB81828D1982882322
:1020900011F481E089830F900FBE89810F900F901A
:1020A0000F90CF91DF910895DF93CF9300D0CDB7FC
:1020B000DEB79B838A83EA81FB81828D1982882324
:1020C00011F481E0898389810F900F900F90CF9157
:1020D000DF910895DF93CF9300D0CDB7DEB79B8318
:1020E0008A830FB6F8940F92EA81FB81928DEA8180
:1020F000FB81838D1982981711F481E089830F90F9
:102100000FBE89810F900F900F90CF91DF910895AE
:10211000DF93CF9300D0CDB7DEB79B838A83EA816C
:10212000FB81928DEA81FB81838D1982981711F4CE
:1021300081E0898389810F900F900F90CF91DF917B
:102140000895DF93CF930F920F92CDB7DEB79A83A6
:10215000898389819A810396E981FA8192838183B7
:10216000E981FA818FEF9FEF9483838389819A813C
:102170000396E981FA819683858389819A81039602
:10218000E981FA8190878783E981FA8110820F9033
:102190000F90CF91DF910895DF93CF930F920F921D
:1021A000CDB7DEB79A838983E981FA8111861086DB
:1021B0000F900F90CF91DF910895DF93CF9300D0D0
:1021C00000D0CDB7DEB79C838B837E836D83EB819C
:1021D000FC81818192819A838983E981FA8182815C
:1021E0009381ED81FE8193838283EB81FC818181E8
:1021F0009281ED81FE8195838483E981FA81028059
:10220000F381E02D8D819E81958384838D819E81D4
:10221000E981FA81938382838D819E81EB81FC81A8
:1022200092838183ED81FE818B819C819187808760
:10223000EB81FC8180818F5FEB81FC81808326961E
:102240000FB6F894DEBF0FBECDBFCF91DF910895DA
:10225000DF93CF93CDB7DEB728970FB6F894DEBFE4
:102260000FBECDBF9E838D8378876F83EF81F88506
:10227000808191819A83898389819A812FEF8F3F11
:10228000920739F4ED81FE81878190859C838B8351
:1022900018C08D819E8103969C838B8306C0EB8141
:1022A000FC81828193819C838B83EB81FC81028002
:1022B000F381E02D2081318189819A8182179307F2
:1022C00070F7EB81FC8182819381EF81F8859383A4
:1022D0008283EF81F8850280F381E02D8F819885DC
:1022E00095838483EF81F8858B819C81958384839A
:1022F0008F819885EB81FC8193838283EF81F885C0
:102300008D819E8191878087ED81FE8180818F5FA5
:10231000ED81FE81808328960FB6F894DEBF0FBE54
:10232000CDBFCF91DF910895DF93CF9300D00F926F
:10233000CDB7DEB79C838B83EB81FC81A281B38117
:10234000EB81FC818481958115969C938E931497E3
:10235000EB81FC81A481B581EB81FC818281938139
:1023600013969C938E931297EB81FC8180859185C7
:102370009A838983E981FA81218132818B819C81D1
:102380002817390741F4EB81FC8184819581E9812B
:10239000FA8192838183EB81FC8111861086E98129
:1023A000FA8180818150E981FA818083E981FA8113
:1023B00080810F900F900F900F90CF91DF91089533
:1023C000DF93CF93CDB7DEB727970FB6F894DEBF74
:1023D0000FBECDBF9D838C836E834F838AE190E0D7
:1023E0000E94B9149A83898389819A81009709F49C
:1023F0006FC080917F0290918002009741F48981A3
:102400009A819093800280937F020E9448148E816B
:10241000823010F081E08E83E981FA81118E108E76
:10242000E981FA818E81868BE981FA818F81878BA0
:10243000E981FA818C819D819183808389819A8150
:1024400002960E94CC1089819A810C960E94CC1031
:10245000E981FA8189819A8191878087E981FA816E
:1024600089819A81938B828B8E81282F30E084E042
:1024700090E0821B930BE981FA8195878487E9813B
:10248000FA81968980918102891728F4E981FA817D
:10249000868980938102E981FA818689282F30E03C
:1024A000C901880F991F880F991F880F991F820FE4
:1024B000931FAC0148575D4F89819A819C012E5F23
:1024C0003F4FCA01B9010E94DD1081E08B8302C039
:1024D0008FEF8B838B8127960FB6F894DEBF0FBEEC
:1024E000CDBFCF91DF910895DF93CF9300D000D07F
:1024F000CDB7DEB79C838B837E836D832091820270
:10250000309183028B819C81820F931F9A838983F0
:1025100080917F029091800202960E949411E09136
:102520007F02F091800289819A8193838283209136
:1025300082023091830289819A818217930770F415
:102540008091AE029091AF0220917F023091800283
:102550002E5F3F4FB9010E9428110DC08091AC023F
:102560009091AD0220917F02309180022E5F3F4F0B
:10257000B9010E9428118D819E81009761F08091A0
:102580007F02909180029C01245F3F4F8D819E814C
:10259000B9010E94281126960FB6F894DEBF0FBE2F
:1025A000CDBFCF91DF910895DF93CF930F920F921C
:1025B000CDB7DEB73AC0F894E091B502F091B6021B
:1025C000868197819A83898389819A810C960E945A
:1025D0009411789489819A8102960E949411E981DC
:1025E000FA81968980918102891728F4E981FA811C
:1025F000868980938102E981FA818689282F30E0DB
:10260000C901880F991F880F991F880F991F820F82
:10261000931FAC0148575D4F89819A819C012E5FC1
:102620003F4FCA01B9010E94DD108091B00288239A
:1026300009F0C1CF0F900F90CF91DF910895DF93F4
:10264000CF9300D00F92CDB7DEB70E941006209135
:10265000840230918502821B930B909387028093B2
:10266000860285C0809182029091830201969093A8
:102670008302809382028091860290918702019763
:1026800090938702809386028091820290918302C8
:10269000009709F064C08091AC029091AD029A83DA
:1026A00089838091AE029091AF029093AD028093A6
:1026B000AC0289819A819093AF028093AE024FC0A1
:1026C000E091AC02F091AD020580F681E02D8681AB
:1026D00097819C838B83EB81FC8122813381809164
:1026E0008202909183028217930708F440C0F89405
:1026F0008B819C8102960E949411EB81FC818489DC
:102700009589009729F08B819C810C960E949411E9
:102710007894EB81FC81968980918102891728F455
:10272000EB81FC81868980938102EB81FC81868923
:10273000282F30E0C901880F991F880F991F880F33
:10274000991F820F931FAC0148575D4F8B819C816D
:102750009C012E5F3F4FCA01B9010E94DD10E0913C
:10276000AC02F091AD028081882309F0A9CF80915D
:10277000860290918702009709F074CF80918202BF
:102780009091830290938502809384020F900F9022
:102790000F900F90CF91DF910895DF93CF930F9219
:1027A0000F92CDB7DEB70E94D4120E941F130AC049
:1027B00080918102882309F466C080918102815052
:1027C0008093810280918102282F30E0C901880F17
:1027D000991F880F991F880F991F820F931FFC0163
:1027E000E857FD4F8081882319F380918102282FBB
:1027F00030E0C901880F991F880F991F880F991F12
:10280000820F931F88579D4F9A838983E981FA81AC
:102810000180F281E02D82819381E981FA819283A6
:102820008183E981FA812181328189819A810396AC
:102830002817390759F4E981FA810180F281E02DE6
:1028400082819381E981FA8192838183E981FA818E
:102850000180F281E02D86819781909380028093A0
:102860007F02E0917F02F09180024081518180914E
:102870007F0290918002E0917F02F091800227898F
:10288000622FFA0119950F900F90CF91DF91089563
:10289000DF93CF930F92CDB7DEB7198213C0898132
:1028A000282F30E0C901880F991F880F991F880FC2
:1028B000991F820F931F88579D4F0E94A1108981F5
:1028C0008F5F89838981823050F38AE992E00E9488
:1028D000A11083EA92E00E94A11080EB92E00E9496
:1028E000A1108AE992E09093AD028093AC0283EA52
:1028F00092E09093AF028093AE020F90CF91DF9160
:102900000895DF93CF9300D00F920F92CDB7DEB72B
:102910009D838C83EC81FD810580F681E02D86818D
:1029200097819B838A838A819B810C960E94941154
:102930008A819B819C01245F3F4F80EB92E0B9012B
:102940000E94DD10EA81FB819689E0917F02F0917F
:1029500080028689981718F081E0898301C0198266
:1029600089810F900F900F900F900F90CF91DF9172
:102970000895DF93CF9300D00F92CDB7DEB79C833D
:102980008B831A8219820E947A058091B9029091F4
:10299000BA022B813C81820F931F28E1803092077D
:1029A00018F52091B9023091BA028B819C81280FD1
:1029B000391F8091B9029091BA0282179307A0F44F
:1029C0008091B9029091BA0285549D4F9A83898370
:1029D0002091B9023091BA028B819C81820F931FA2
:1029E0009093BA028093B9020E94860589819A81E8
:1029F0000F900F900F900F90CF91DF910895DF937C
:102A0000CF930F920F92CDB7DEB79A8389830F9041
:102A10000F90CF91DF910895DF93CF93CDB7DEB7BD
:102A20001092BA021092B902CF91DF910895DF930C
:102A3000CF93CDB7DEB72091B9023091BA0280E0D2
:102A400098E1821B930BCF91DF910895DF93CF9391
:102A5000CDB7DEB728970FB6F894DEBF0FBECDBF57
:102A60009C838B837E836D8358874F83EB81FC81AE
:102A700081E180838B819C8101979C838B83EB8197
:102A8000FC8182E280838B819C8101979C838B8374
:102A9000EB81FC8183E380838B819C8101979C8304
:102AA0008B838D819E819A8389838981EB81FC81CF
:102AB00080838B819C8101979C838B8389819A8100
:102AC000892F99279A8389838981EB81FC8180836F
:102AD0008B819C8101979C838B83EB81FC8110828D
:102AE0008B819C8101979C838B83EB81FC8110827D
:102AF0008B819C8101979C838B83EB81FC8180E897
:102B000080838B819C8101979C838B83EB81FC81EB
:102B100010828B819C8101979C838B83EB81FC814C
:102B200010828B819C8101979C838B83EB81FC813C
:102B300010828B819C8101979C838B83EB81FC812C
:102B400082E080838B819C8101979C838B83EB81C6
:102B5000FC8183E080838B819C8101979C838B83A4
:102B6000EB81FC8184E080838B819C8101979C8335
:102B70008B83EB81FC8185E080838B819C81019735
:102B80009C838B83EB81FC8186E080838B819C819D
:102B900001979C838B83EB81FC8187E080838B8111
:102BA0009C8101979C838B83EB81FC8188E08083EF
:102BB0008B819C8101979C838B83EB81FC8189E0D5
:102BC00080838B819C8101979C838B83EB81FC812B
:102BD00080E180838B819C8101979C838B83EB8137
:102BE000FC8181E180838B819C8101979C838B8315
:102BF000EB81FC8182E180838B819C8101979C83A6
:102C00008B83EB81FC8183E180838B819C810197A5
:102C10009C838B83EB81FC8184E180838B819C810D
:102C200001979C838B83EB81FC8185E180838B8181
:102C30009C8101979C838B83EB81FC8186E180835F
:102C40008B819C8101979C838B83EB81FC8187E145
:102C500080838B819C8101979C838B83EB81FC819A
:102C600088E180838B819C8101979C838B83EB819E
:102C7000FC8189E180838B819C8101979C838B837C
:102C8000EB81FC8180E280838B819C8101979C8316
:102C90008B83EB81FC8181E280838B819C81019716
:102CA0009C838B83EB81FC8182E280838B819C817E
:102CB00001979C838B83EB81FC8183E280838B81F2
:102CC0009C8101979C838B838F8198859A838983CC
:102CD0008981EB81FC8180838B819C8101979C831E
:102CE0008B8389819A81892F99279A838983898106
:102CF000EB81FC8180838B819C8101979C838B83FA
:102D0000EB81FC8186E280838B819C8101979C838F
:102D10008B83EB81FC8187E280838B819C8101978F
:102D20009C838B83EB81FC8188E280838B819C81F7
:102D300001979C838B83EB81FC8189E280838B816B
:102D40009C8101979C838B83EB81FC8180E3808352
:102D50008B819C8101979C838B83EB81FC8181E338
:102D600080838B819C8101979C838B838B819C8149
:102D700028960FB6F894DEBF0FBECDBFCF91DF917E
:102D80000895DF93CF93CDB7DEB70E94C517A0910A
:102D90002602B0912702CD91CDBFDD91DEBFFF911C
:102DA000EF91DF91CF91BF91AF919F918F917F91E3
:102DB0006F915F914F913F912F911F910F91FF90D4
:102DC000EF90DF90CF90BF90AF909F908F907F90CB
:102DD0006F905F904F903F902F901F900F900CBE80
:102DE0000F900BBE0F900FBE0F90089581E0CF9112
:102DF000DF910895DF93CF93CDB7DEB7CF91DF9109
:102E000008950F920FB6F8940F920BB60F920CB66E
:102E10000F921F9211242F923F924F925F926F92C6
:102E20007F928F929F92AF92BF92CF92DF92EF925A
:102E3000FF920F931F932F933F934F935F936F9343
:102E40007F938F939F93AF93BF93CF93DF93EF9332
:102E5000FF93A0912602B09127020DB60D920EB6F7
:102E60000D920E941907A0912602B0912702CD91E0
:102E7000CDBFDD91DEBFFF91EF91DF91CF91BF918B
:102E8000AF919F918F917F916F915F914F913F9102
:102E90002F911F910F91FF90EF90DF90CF90BF90F7
:102EA000AF909F908F907F906F905F904F903F90EA
:102EB0002F901F900F900CBE0F900BBE0F900FBE67
:102EC0000F9008950F920FB6F8940F920BB60F92D1
:102ED0000CB60F921F9211242F923F924F925F9245
:102EE0006F927F928F929F92AF92BF92CF92DF921A
:102EF000EF92FF920F931F932F933F934F935F9304
:102F00006F937F938F939F93AF93BF93CF93DF93F1
:102F1000EF93FF93A0912602B09127020DB60D9278
:102F20000EB60D920E9445060E941907A091260236
:102F3000B0912702CD91CDBFDD91DEBFFF91EF9122
:102F4000DF91CF91BF91AF919F918F917F916F91C1
:102F50005F914F913F912F911F910F91FF90EF90B3
:102F6000DF90CF90BF90AF909F908F907F906F90A9
:102F70005F904F903F902F901F900F900CBE0F903E
:102F80000BBE0F900FBE0F900895DF93CF9300D02C
:102F900000D0CDB7DEB780E09DE7A0E0B0E08B8346
:102FA0009C83AD83BE838B819C81AD81BE816894FF
:102FB00015F8B695A795979587951694D1F78B83B5
:102FC0009C83AD83BE838B819C81AD81BE81019743
:102FD000A109B1098B839C83AD83BE838B818983D7
:102FE0008B819C81AD81BE81892F9A2FAB2FBB270E
:102FF0008B839C83AD83BE838B818A83E9E9F0E078
:103000008A818083E8E9F0E0898180838BE089838D
:10301000E1E9F0E089818083E1E7F0E08081898364
:10302000898182608983E1E7F0E089818083269647
:103030000FB6F894DEBF0FBECDBFCF91DF910895DC
:103040000E9462171895DF93CF93CDB7DEB72A970A
:103050000FB6F894DEBF0FBECDBF9E838D834F8326
:10306000588769877A8780E461E040E00E94ED0B31
:103070009093C31A8093C21A88E061E040E00E94F6
:10308000ED0B9093BF1A8093BE1A8F819885A98506
:10309000BA85689413F8B695A79597958795169471
:1030A000D1F72D813E81990140E050E0BC01CD0176
:1030B0000E942720DA01C9010197A109B10989837A
:1030C0009A83AB83BC8325EC30E089819A81AB8104
:1030D000BC81892F9A2FAB2FBB27F901808384EC09
:1030E00090E02981FC01208381EC90E028E9FC013B
:1030F000208382EC90E026E0FC01208380EC90E0CD
:1031000020EC30E0F90120812D7FFC0120832A96FC
:103110000FB6F894DEBF0FBECDBFCF91DF910895FB
:10312000DF93CF930F92CDB7DEB78983000080EC99
:1031300090E0FC018081882F90E080729070009771
:10314000B1F386EC90E02981FC0120830F90CF91B0
:10315000DF910895DF93CF930F92CDB7DEB78983C8
:10316000000080EC90E0FC018081882F90E080726C
:1031700090700097B1F386EC90E02981FC012083E8
:103180000F90CF91DF910895DF93CF93CDB7DEB746
:10319000000080EC90E0FC0180818823D4F786EC6D
:1031A00090E0FC018081CF91DF9108951F920F92F2
:1031B0000FB60F9200905B000F9211242F933F9354
:1031C0004F935F936F937F938F939F93AF93BF932F
:1031D000EF93FF93DF93CF930F92CDB7DEB78EECD3
:1031E00090E0FC01808189838091BE1A9091BF1A82
:1031F0009E012F5F3F4FB90140E050E020E00E9468
:10320000350D0F90CF91DF91FF91EF91BF91AF916D
:103210009F918F917F916F915F914F913F912F91EE
:103220000F9000925B000F900FBE0F901F901895AB
:10323000DF93CF930F92CDB7DEB789838091C21A07
:103240009091C31A9E012F5F3F4FB9014FEF5FEF7F
:1032500020E00E94970C0F90CF91DF910895DF93AB
:10326000CF930F920F92CDB7DEB79A8389830BC0AD
:1032700089819A81FC0180810E94181989819A8133
:1032800001969A83898389819A81FC0180818823B0
:1032900079F70F900F90CF91DF910895DF93CF933F
:1032A00000D0CDB7DEB79B838A838091C21A9091FC
:1032B000C31A9E012F5F3F4FB9014FEF5FEF20E030
:1032C0000E94860D000080EC90E0FC018081882F38
:1032D00090E0807290700097B1F38EEC90E02981BD
:1032E000FC012083E2CFDF93CF930F92CDB7DEB7FF
:1032F00089838091C01A9091C11A9E012F5F3F4F20
:10330000B9014FEF5FEF20E00E94970C0F90CF9133
:10331000DF910895DF93CF930F920F92CDB7DEB771
:103320009A8389830BC089819A81FC0180810E94E4
:10333000731989819A8101969A83898389819A81F7
:10334000FC018081882379F70F900F90CF91DF9156
:103350000895DF93CF9300D0CDB7DEB79B838A83E8
:103360008091C01A9091C11A9E012F5F3F4FB90101
:103370004FEF5FEF20E00E94860D000080EC90E0B0
:10338000FC018081882F90E0807290700097B1F3EB
:1033900086EC90E02981FC012083E2CFDF93CF937C
:1033A0000F92CDB7DEB78091BE1A9091BF1A9E01E1
:1033B0002F5F3F4FB90141E050E020E00E94860DB1
:1033C000813011F4898101C08FEF0F90CF91DF918F
:1033D0000895DF93CF93CDB7DEB7C455D0400FB675
:1033E000F894DEBF0FBECDBF9E012D5A3F4FF901AD
:1033F0009183808385E290E0FC01108219821B8218
:103400001A8229C00E94CE198C838C818F3F81F053
:103410008981992787FD90959E012A5F3F4F820FF2
:10342000931F2C81FC01208389818F5F89830AC0CF
:103430008A819B8101969B838A8385E290E02FEFAE
:10344000FC0120838A819B81F3EC81359F0718F072
:103450001B821A82198289818430A4F2CE010696D9
:1034600063E00E943B1B982F8985981719F00E94F2
:10347000231BC4CF0E94191B19828E818E878F81D6
:103480008F878985888B88858D831B821A828D81A1
:10349000882309F463C01FC088EC90E0FC018081A0
:1034A0008823ACF48EEC90E0FC0180818C838981D0
:1034B000992787FD90959E012A5F3F4F820F931FAA
:1034C0002C81FC01208389818F5F898304C081E086
:1034D00090E09B838A838981282F332727FD3095AD
:1034E0008D81992787FD90950196281739072CF42F
:1034F0008A819B818233910578F28A819B81823314
:10350000910558F52D81CE010696622F0E943B1B36
:10351000482F8D81992787FD90959E012A5F3F4F07
:10352000820F931FFC018081481729F00E94231B02
:1035300019820000D0CF0E94191B8D81282F3327BC
:1035400027FD3095CE010E960396AE014A5F5F4F80
:10355000BA01A9010E94492001C00000CE010E96C7
:103560009E012F5C3F4FB9010E94401D2DEB3AE1B7
:10357000CE01C196F901199541CFDF93CF9300D0C9
:1035800000D0CDB7DEB79E838D8301C000008D8152
:103590009E81FC0180810E9418198D819E81FC0111
:1035A00081810E9418198D819E81FC0180818B830D
:1035B0008D819E81FC0181818C83CE01039662E026
:1035C0000E943B1B0E9418190E942D1B8823F1F6B4
:1035D0001A82198210C02D813E8189819A81820FC1
:1035E000931F0296FC0180810E94181989819A819B
:1035F00001969A8389838D819E81FC018181282F88
:10360000332727FD309589819A81821793071CF310
:103610008D819E8102966CE00E943B1B0E941819CE
:1036200026960FB6F894DEBF0FBECDBFCF91DF91C7
:103630000895DF93CF93CDB7DEB780E80E941819C5
:10364000CF91DF910895DF93CF93CDB7DEB780E0C0
:103650000E941819CF91DF910895DF93CF93CDB7D2
:10366000DEB70E94CE198F3F11F480E001C08FEFCA
:10367000CF91DF910895DF93CF9300D000D0CDB7E5
:10368000DEB79D838C836E8319821B821A8211C0E0
:103690008C819D81FC0180819981890F89838C8136
:1036A0009D8101969D838C838A819B8101969B835A
:1036B0008A838E81282F30E08A819B81821793072D
:1036C0003CF3898126960FB6F894DEBF0FBECDBFBE
:1036D000CF91DF910895DF93CF930F920F92CDB7E3
:1036E000DEB79A83898381E00F900F90CF91DF91AD
:1036F0000895DF93CF93CDB7DEB729970FB6F8942F
:10370000DEBF0FBECDBF89837B836A835D834C831D
:103710003F832E838981282F332727FD30953987D2
:103720002887888599858230910599F02885398583
:1037300023303105B9F08885998581309105D1F420
:103740008E819F810E94FE1EEC81FD818CE0808332
:1037500011C0EA81FB8180812E813F81B9010E94E5
:10376000291F08C0EA81FB8180812E813F81B90138
:103770000E94541F81E029960FB6F894DEBF0FBE59
:10378000CDBFCF91DF910895DF93CF93CDB7DEB753
:1037900027970FB6F894DEBF0FBECDBF89837B831A
:1037A0006A835D834C838981282F332727FD3095D9
:1037B0003F832E838E819F81009731F02E813F8140
:1037C0002130310531F00DC08C819D810E94C11FD7
:1037D00008C0EA81FB818081992787FD90950E942E
:1037E000D21F81E027960FB6F894DEBF0FBECDBF83
:1037F000CF91DF910895DF93CF93CDB7DEB72797B1
:103800000FB6F894DEBF0FBECDBF89837B836A837A
:103810005D834C838981282F332727FD30953F8393
:103820002E838E819F818230910541F12E813F81CF
:103830002330310554F48E819F81009789F02E81C9
:103840003F8121303105A9F051C08E819F818330A5
:103850009105C9F02E813F812430310599F146C090
:10386000EA81FB818081992787FD90950E94DD1F69
:103870003DC08C819D810E94E81F38C08C819D8154
:103880000E94F91F33C0EA81FB818081682F77276E
:1038900067FD70958A819B81FC0131968081482F5C
:1038A000552747FD50958A819B81FC013296808186
:1038B000282F332727FD3095CB01BA01A9010E949B
:1038C0000A2014C0EA81FB818081482F552747FDDB
:1038D00050958A819B81FC0131968081282F332766
:1038E00027FD3095CA01B9010E94192081E0279671
:1038F0000FB6F894DEBF0FBECDBFCF91DF91089514
:10390000DF93CF93CDB7DEB728970FB6F894DEBF1D
:103910000FBECDBF89837B836A835D834C8389819E
:10392000282F332727FD30953F832E838E819F815B
:10393000009731F02E813F812130310551F00DC0CB
:10394000EA81FB818081992787FD90950E94BA1DAD
:1039500004C08C819D810E94C51D28960FB6F894E5
:10396000DEBF0FBECDBFCF91DF910895DF93CF9320
:10397000CDB7DEB728970FB6F894DEBF0FBECDBF28
:1039800089837B836A835D834C838981282F3327D6
:1039900027FD30953F832E838E819F81009731F0E4
:1039A0002E813F812130310551F00DC0EA81FB812C
:1039B0008081992787FD90950E949E1D04C08C816F
:1039C0009D810E94A91D28960FB6F894DEBF0FBEF8
:1039D000CDBFCF91DF910895DF93CF93CDB7DEB701
:1039E00028970FB6F894DEBF0FBECDBF89837B83C7
:1039F0006A835D834C838981282F332727FD309587
:103A00003F832E838E819F81009731F02E813F81ED
:103A10002130310531F009C08C819D810E947C1DCF
:103A200004C08C819D810E948D1D28960FB6F8944C
:103A3000DEBF0FBECDBFCF91DF910895DF93CF934F
:103A400000D000D0CDB7DEB789837B836A835D83E6
:103A50004C838981992787FD9095009741F4EA81ED
:103A6000FB818081992787FD90950E94D61D26961F
:103A70000FB6F894DEBF0FBECDBFCF91DF91089592
:103A8000DF93CF9300D00F920F92CDB7DEB79A831A
:103A900089837C836B8389819A810E946B1B882335
:103AA00009F1E981FA818081992787FD909581301C
:103AB0009105A9F4E981FA81E18189819A81BC01AA
:103AC0006D5F7F4F8B819C81AC014F5F5F4F8B811E
:103AD0009C819C012E5F3F4F8E2F0E94791B81E0BD
:103AE0008D8301C01D828D810F900F900F900F90DC
:103AF0000F90CF91DF910895DF93CF930F920F92A4
:103B0000CDB7DEB79A838983E981FA81108281E09B
:103B10000F900F90CF91DF910895DF93CF930F9285
:103B20000F92CDB7DEB79A838983E981FA8110823B
:103B300081E00F900F90CF91DF910895DF93CF93A5
:103B40000F92CDB7DEB7898381E00F90CF91DF91DF
:103B50000895DF93CF930F920F92CDB7DEB79A837C
:103B60008983E981FA81108281E00F900F90CF91D3
:103B7000DF910895DF93CF930F92CDB7DEB789839E
:103B800081E00F90CF91DF910895DF93CF930F9253
:103B90000F92CDB7DEB79A838983E981FA811082CB
:103BA00081E00F900F90CF91DF910895DF93CF9335
:103BB0000F92CDB7DEB7898381E00F90CF91DF916F
:103BC0000895CF93DF9300D0CDB7DEB79A83898372
:103BD0006B8389819A818C53954E2B81FC012083C4
:103BE0000F900F900F90DF91CF910895CF93DF93B7
:103BF0001F921F92CDB7DEB79A83898389818E5F2A
:103C00000F900F90DF91CF910895CF93DF93CDB7B1
:103C1000DEB786E490E0FC018081DF91CF910895CA
:103C20001F920F9200905F000F92112400905B0092
:103C30000F922F933F934F935F936F937F938F9345
:103C40009F93AF93BF93EF93FF93CF93DF9300D0F6
:103C5000CDB7DEB7198286E091E0FC018081882F24
:103C600090E02091D81A222F30E0022E02C09595C4
:103C700087950A94E2F781709927009749F00E948E
:103C8000051E8A838EE290E02FEFFC0120831DC089
:103C90000E94051E8B839B818A81891738F49B8142
:103CA0008A81F92FF81B8F2F8093BB1A8EE290E048
:103CB000FC0110828091CA1A9091CB1A20E040E05A
:103CC00050E060E070E00E94350D0F900F900F9073
:103CD000DF91CF91FF91EF91BF91AF919F918F9124
:103CE0007F916F915F914F913F912F910F90009233
:103CF0005B000F9000925F000F901F901895CF937C
:103D0000DF93CDB7DEB78DE790E0FC01108287E04E
:103D100091E0FC01108287E290E0FC01108288E2D1
:103D200090E0FC0110828DE690E02FEFFC012083F3
:103D300088E690E027E0FC01208384E490E0FC0129
:103D4000108285E490E025E0FC012083DF91CF9193
:103D50000895CF93DF9300D01F92CDB7DEB79C8339
:103D60008B830E947F1E43E060E081E00E94ED0BA8
:103D70009093CB1A8093CA1A8091CA1A9091CB1A49
:103D8000009759F08091CA1A9091CB1A20E040E038
:103D900050E060E070E00E94970C1092D81A1A82EE
:103DA000198226C089818093D81A88E290E021E0A8
:103DB00030E0098002C0220F331F0A94E2F7FC01B1
:103DC00020838091CA1A9091CB1A20E04FEF5FEFC9
:103DD00060E070E00E94860D2091BB1A89819A8173
:103DE000622F0E94E11D89819A8101969A838983BD
:103DF00089819A8182309105ACF2D1CFCF93DF9344
:103E000000D01F92CDB7DEB79C838B831A821982B4
:103E100014C089819A81880F991F2B813C81820F60
:103E2000931F29813A812F5F3F4FFC01318320830B
:103E300089819A8101969A83898389819A818630C2
:103E4000910538F30F900F900F900F90DF91CF9165
:103E500008950F931F93CF93DF9300D0CDB7DEB7B4
:103E600089837B836A8389818630B4F48981992729
:103E700087FD9095880F991F2A813B818901080F42
:103E8000191F8981992787FD90950E94F61D882F1B
:103E900090E0F801918380830F900F900F90DF9155
:103EA000CF911F910F9108950F931F93CF93DF939D
:103EB00000D0CDB7DEB789837B836A838981992758
:103EC00087FD90958130910501F182309105B9F11E
:103ED000009709F04EC080E090E00E94F61D282F68
:103EE00030E08A819B81FC01318320838A819B8120
:103EF0008C010E5F1F4F81E090E00E94F61D882F1D
:103F000090E0F8019183808334C082E090E00E94C9
:103F1000F61D282F30E08A819B81FC0131832083AC
:103F20008A819B818C010E5F1F4F83E090E00E948D
:103F3000F61D882F90E0F801918380831AC084E0F9
:103F400090E00E94F61D282F30E08A819B81FC01C1
:103F5000318320838A819B818C010E5F1F4F85E016
:103F600090E00E94F61D882F90E0F80191838083F5
:103F700000000F900F900F90DF91CF911F910F9144
:103F80000895DF93CF930F920F92CDB7DEB79A8348
:103F90008983E981FA81108281E00F900F90CF919F
:103FA000DF910895DF93CF930F92CDB7DEB789836A
:103FB00081E00F90CF91DF910895DF93CF930F921F
:103FC000CDB7DEB7898381E00F90CF91DF9108955F
:103FD000DF93CF930F920F92CDB7DEB79A83898389
:103FE000E981FA81108281E00F900F90CF91DF91EB
:103FF0000895DF93CF930F920F92CDB7DEB79A83D8
:104000008983E981FA81108281E00F900F90CF912E
:10401000DF910895DF93CF9300D0CDB7DEB78983CA
:104020006A834B8381E00F900F900F90CF91DF91C7
:104030000895DF93CF930F920F92CDB7DEB78983A8
:104040006A8381E00F900F90CF91DF910895A1E2F4
:104050001A2EAA1BBB1BFD010DC0AA1FBB1FEE1F02
:10406000FF1FA217B307E407F50720F0A21BB30B4D
:10407000E40BF50B661F771F881F991F1A9469F7C9
:1040800060957095809590959B01AC01BD01CF0125
:104090000895FB01DC0102C001900D924150504097
:1040A000D8F70895DC0101C06D9341505040E0F70E
:1040B0000895FB01DC014150504048F001900D9201
:1040C0000020C9F701C01D9241505040E0F708950B
:1040D000FB019F01E8944230C4F04532B4F44A3009
:1040E00029F497FB1EF4909581959F4F642F7727B5
:1040F0000E949920805D8A330CF0895D8193CB0109
:104100000097A1F716F45DE251931082C9010C9457
:104110008920DC01FC01672F71917723E1F7329749
:1041200004C07C916D9370836291AE17BF07C8F392
:104130000895AA1BBB1B51E107C0AA1FBB1FA617EE
:10414000B70710F0A61BB70B881F991F5A95A9F740
:0E41500080959095BC01CD010895F894FFCFA5
:10415E005430005431005432005433003031323375
:10416E00343536373839414243444546FFFF4944DA
:04417E004C450000AC
:00000001FF
