:100000000C9472000C9494000C9494000C94940042
:100010000C9494000C9494000C9494000C94940010
:100020000C9494000C9494000C9494000C94940000
:100030000C9494000C9494000C9494000C949400F0
:100040000C9494000C9494000C9494000C949400E0
:100050000C9494000C9494000C9494000C949400D0
:100060000C9494000C9494000C9494000C949400C0
:100070000C9494000C9494000C9494000C949400B0
:100080000C947F050C9494000C9494000C949400B0
:100090000C9494000C9494000C9494000C94940090
:1000A0000C9494000C9494000C9494000C94940080
:1000B0000C9494000C9494000C9494000C94940070
:1000C0000C9494000C9494000C9494000C94940060
:1000D0000C9494000C9494000C9494000C94940050
:1000E0000C94940011241FBECFEFD1E2DEBFCDBF30
:1000F00000E00CBF12E0A0E0B2E0E0E4FEE100E0CE
:100100000BBF02C007900D92AE30B107D9F71BBEEE
:100110001AE1AEE0B2E001C01D92A33AB107E1F7E7
:100120000E94C3020C941E0F0C940000AF92BF9269
:10013000CF92DF92EF92FF920F931F93CF93DF93B3
:100140006C01E62EF42E8AE190E00E940B038C01F4
:10015000009709F462C080910E0290910F020097FF
:1001600039F510930F0200930E02C1E1D2E0CE01E7
:100170000E944303CE0109960E944303C3E2D2E0EA
:10018000CE010E9443030F2EFCE2AF2EF2E0BF2E01
:10019000F02DC5010E94430385E392E00E944303D2
:1001A000D0933F02C0933E02B0924102A09240021F
:1001B000CE2DE110C1E0F801118E108EC68BF78AAA
:1001C000C192D1927F01CF010E945103C8010C96C8
:1001D0000E945103F80111870087138B028B84E082
:1001E00090E08C1B910995878487868990911002F5
:1001F000981710F48093100290E09C01220F331F97
:10020000220F331F220F331F820F931F8F5E9D4FCC
:10021000B7010E94550381E001C08FEFDF91CF91BC
:100220001F910F91FF90EF90DF90CF90BF90AF9014
:1002300008950F931F93CF93DF938B01C0914202D8
:10024000D0914302C80FD91F80910E0290910F02E6
:1002500002960E94BB03E0910E02F0910F02D3833D
:10026000C2838091420290914302C817D90750F48B
:10027000BF016E5F7F4F80914002909141020E94CA
:100280007E0309C0BF016E5F7F4F80913E02909157
:100290003F020E947E030115110549F060910E0294
:1002A00070910F02645F7F4FC8010E947E03DF914F
:1002B000CF911F910F910895CF92DF92EF92FF920D
:1002C0000F931F93CF93DF93809135028823B9F169
:1002D0000F2EFAE3EF2EF2E0FF2EF02D0F2EF5E3B6
:1002E000CF2EF2E0DF2EF02DF894D701ED91FC91A6
:1002F000C681D781CE010C960E94BB0378948E01F3
:100300000E5F1F4FC8010E94BB038E89909110029F
:10031000981710F48093100290E09C01220F331F75
:10032000220F331F220F331F820F931F8F5E9D4FAB
:10033000B8010E945503F60180818823A9F60E9426
:10034000120B2091440230914502821B930B909333
:1003500047028093460274C02091420230914302CA
:100360002F5F3F4F309343022093420201979093B7
:100370004702809346022115310581F480913E02A7
:1003800090913F02209140023091410230933F0210
:1003900020933E029093410280934002E0913E02FE
:1003A000F0913F028081882309F44AC00580F681DC
:1003B000E02DC681D7812A813B81809142029091B4
:1003C00043028217930778F43BC00580F681E02D45
:1003D000C681D7812A813B8180914202909143025C
:1003E0008217930768F1F8948E010E5F1F4FC801C2
:1003F0000E94BB038C899D89009721F0CE010C9649
:100400000E94BB0378948E8990911002981710F483
:100410008093100290E09C01220F331F220F331FA4
:10042000220F331F820F931F8F5E9D4FB8010E94D2
:100430005503E0913E02F0913F028081882329F626
:100440008091460290914702009709F085CF8091F4
:10045000420290914302909345028093440220917E
:100460001002822F90E0FC01EE0FFF1FEE0FFF1F26
:10047000EE0FFF1FE80FF91FEF5EFD4F30813323B2
:10048000D9F4222331F447C0222319F42093100217
:1004900042C02150822F90E0FC01EE0FFF1FEE0FB3
:1004A000FF1FEE0FFF1FE80FF91FEF5EFD4F3081BA
:1004B000332351F320931002FC01EE0FFF1FEE0FC8
:1004C000FF1FEE0FFF1F8E0F9F1FFC01EF5EFD4F02
:1004D000A181B28112960D90BC91A02DB283A1830F
:1004E000CF010396A817B90731F412968D919C910C
:1004F0001397928381830180F281E02DA681B781D9
:10050000B0930F02A0930E02ED91FC911197CD01D3
:1005100057966C911995DF91CF911F910F91FF9094
:10052000EF90DF90CF9008950F931F93CF93DF93B9
:10053000DC011596ED91FC91169706811781E80173
:100540002C96CE010E94BB0385E392E0BE010E947F
:100550005503E0910E02F0910F0281E0D80156960A
:100560002C9156979689291708F480E0DF91CF9156
:100570001F910F910895FC01808185B9FDCF8FEF08
:1005800084B985B908958F929F92AF92BF92CF920E
:10059000DF92EF92FF920F93CF93DF930F920F9220
:1005A000CDB7DEB78FE389838EEF8A830E94BF02C7
:1005B0000F2EFBEB8F2EF2E09F2EF02DC40160E09A
:1005C00072E045E550E09E012E5F3F4F01E0EE24D2
:1005D000FF24CC24DD24AA24BB240E942009C401CA
:1005E00063E072E045E550E09E012F5F3F4F0E94BF
:1005F00020090E94DB0A80E090E00F900F90DF91CD
:10060000CF910F91FF90EF90DF90CF90BF90AF9080
:100610009F908F9008950F931F93CF93DF93EC01DA
:100620000E940C0B0091480210914902C00FD11F8B
:1006300088E1C030D80750F40C171D0750F4065B52
:100640001D4FD0934902C093480205C000E010E05E
:1006500002C000E010E00E94EA0B802F912FDF9192
:10066000CF911F910F910895089510924902109211
:1006700048020895209148023091490280E098E1B3
:10068000821B930B0895FC010396928381832FEFC5
:100690003FEF3483238396838583908787831082FB
:1006A0000895FC01118610860895CF93DF93EC0125
:1006B000FB0189819A81DC0112962D913C9113975F
:1006C0003383228329813A813583248312962D91A5
:1006D0003C911397D90115967C936E931497DC0186
:1006E00013967C936E9312977A836983D187C08720
:1006F00088818F5F8883DF91CF910895CF93DF93B7
:10070000AC01EB01288139818FEF2F3F380721F4AD
:10071000FA01A781B08518C0DA011396FA01858124
:100720009681FC01808191812817390768F0129623
:100730000D90BC91A02D1296ED91FC9113978081A4
:1007400091812817390798F71296ED91FC9113972C
:10075000FB83EA83D583C483BD83AC831396DC9388
:10076000CE93129759874887FA0180818F5F8083E3
:10077000DF91CF910895FC01A281B381848195819D
:1007800015969C938E931497A481B5818281938151
:1007900013969C938E931297A085B18511968D9197
:1007A0009C9112978E179F0731F484819581129640
:1007B0009C938E931197118610868C9181508C9307
:1007C0008C91089521E1FC012083319732E230833E
:1007D000FC013297A3E3A083FC0133976083FC0103
:1007E00034977083FC0135971082FC013697108294
:1007F000FC01379760E86083FC0138971082FC01A8
:1008000039971082FC013A971082FC013B9762E015
:100810006083FC013C9763E06083FC013D9764E0EA
:100820006083FC013E9765E06083FC013F9766E0D2
:100830006083FC01709767E06083FC01719768E05A
:100840006083FC01729769E06083FC01739760E14B
:100850006083FC0174972083FC01759722E120835B
:10086000FC01769723E12083FC01779724E1208324
:10087000FC01789725E12083FC01799726E120830C
:10088000FC017A9727E12083FC017B9728E12083F4
:10089000FC017C9729E12083FC017D9720E22083E5
:1008A000FC017E9721E22083FC017F973083FC01CD
:1008B000B09723E22083FC01B1974083FC01B297FB
:1008C0005083FC01B39726E22083FC01B49727E212
:1008D0002083FC01B59728E22083FC01B69729E22A
:1008E0002083FC01B79720E32083FC01B89721E324
:1008F00020838997089581E08093990083EF809306
:1009000098008BE080939100E1E7F0E080818260C5
:100910008083A0914A1AB0914B1ACD91CDBFDD9141
:10092000DEBFFF91EF91DF91CF91BF91AF919F918A
:100930008F917F916F915F914F913F912F911F9177
:100940000F91FF90EF90DF90CF90BF90AF909F906E
:100950008F907F906F905F904F903F902F901F905F
:100960000F900CBE0F900BBE0F900FBE0F9008950E
:1009700081E0089508950F920FB6F8940F920BB688
:100980000F920CB60F921F9211242F923F924F920A
:100990005F926F927F928F929F92AF92BF92CF920F
:1009A000DF92EF92FF920F931F932F933F934F93FA
:1009B0005F936F937F938F939F93AF93BF93CF93E7
:1009C000DF93EF93FF93A0914A1AB0914B1A0DB6A3
:1009D0000D920EB60D920E94E40CA0914A1AB091AD
:1009E0004B1ACD91CDBFDD91DEBFFF91EF91DF912D
:1009F000CF91BF91AF919F918F917F916F915F91B7
:100A00004F913F912F911F910F91FF90EF90DF90A9
:100A1000CF90BF90AF909F908F907F906F905F909E
:100A20004F903F902F901F900F900CBE0F900BBED9
:100A30000F900FBE0F9008950F920FB6F8940F927B
:100A40000BB60F920CB60F921F9211242F923F9269
:100A50004F925F926F927F928F929F92AF92BF92CE
:100A6000CF92DF92EF92FF920F931F932F933F93BA
:100A70004F935F936F937F938F939F93AF93BF93A6
:100A8000CF93DF93EF93FF93A0914A1AB0914B1A43
:100A90000DB60D920EB60D920E94240B0E94E40C2E
:100AA000A0914A1AB0914B1ACD91CDBFDD91DEBF16
:100AB000FF91EF91DF91CF91BF91AF919F918F9176
:100AC0007F916F915F914F913F912F911F910F9166
:100AD000FF90EF90DF90CF90BF90AF909F908F905E
:100AE0007F906F905F904F903F902F901F900F904E
:100AF0000CBE0F900BBE0F900FBE0F9008950E947A
:100B00001C051895CF93DF93DC01CD91DC911197F3
:100B1000209721F15C964C915C9716962D913C9113
:100B20001797240F311D17963C932E931697129604
:100B3000ED91FC9113972E173F0720F01796DC9349
:100B4000CE93169716963C91169717962C91862F52
:100B5000972F632F722F50E00E94FF0EDF91CF91ED
:100B600008950F931F93CF93DF93EC010FB6F89482
:100B70000F928E8D1816C4F48989882329F414C025
:100B80008989882321F410C08E010F5E1F4FC80190
:100B90000E94BD0D882311F00E944E0E8E8D815053
:100BA0008E8F8E8D181664F38FEF8E8F0F900FBE81
:100BB0000FB6F8940F928D8D1816C4F4888588238B
:100BC00029F414C08885882321F410C08E01085FA1
:100BD0001F4FC8010E94BD0D882311F00E944E0EC8
:100BE0008D8D81508D8F8D8D181664F38FEF8D8FC5
:100BF0000F900FBEDF91CF911F910F910895CF936A
:100C0000DF93EC012C8D222359F488819981009780
:100C1000E1F58A819B810E94CA0E1B821A8235C02F
:100C20004423B9F48C819D81422F50E00E94FF0E35
:100C30002C8D8C819D81820F911D9D838C832A81B7
:100C40003B818217930708F1888199819D838C836A
:100C50001CC08E819F81422F50E00E94FF0E4C8D60
:100C600050E0509541955F4F8E819F81840F951F75
:100C70009F838E83288139818217930730F48A817C
:100C80009B81480F591F5F834E838A8D8F5F8A8FA8
:100C9000DF91CF910895CF93DF93EC010FB6F894D5
:100CA0000F92488159812B8D30E0EC8DF0E02E9F22
:100CB000C0012F9F900D3E9F900D1124840F951F12
:100CC0009B838A831A8E5D834C83C9010197E89FB9
:100CD0009001E99F300DF89F300D1124240F351F2E
:100CE0003F832E838FEF8D8F8E8F662361F48885EF
:100CF000882389F0CE0108960E94BD0D813059F4F9
:100D00000E94BB0408C0CE0108960E944303CE0196
:100D100041960E9443030F900FBE81E0DF91CF9177
:100D200008950F931F93CF93DF93182F062F8823D7
:100D3000F9F08FE190E00E940B03EC010097D9F0ED
:100D4000019FC001112401960E940B03998388839F
:100D5000009741F01B8F0C8FCE0161E00E944B0683
:100D6000CE010BC0CE010E94340380E090E005C0AC
:100D700080E090E002C080E090E0DF91CF911F9191
:100D80000F9108958F929F92BF92CF92DF92EF9230
:100D9000FF920F931F93CF93DF9300D00F920F9288
:100DA000CDB7DEB78C014B015D834C83B22EFF249F
:100DB000EE24E394CC24DD246894C3F8C80ED91E35
:100DC0000FB6F8940F92F801928D838D9817A8F4BE
:100DD000C801B4014B2D0E94FF05F80181898823C9
:100DE00041F0C80141960E94BD0D813011F40E946E
:100DF000BB040F900FBE81E052C08C819D81009793
:100E000021F40F900FBE80E04AC0FF2029F4CE01EC
:100E100001960E94050EFE2C0F900FBE0E940C0B37
:100E20000FB6F8940F92F801858D8F3F09F4158E57
:100E3000F801868D8F3F09F4168E0F900FBECE01FC
:100E40000196BE016C5F7F4F0E94100E882309F54A
:100E50000FB6F8940F92F801928D0F900FBEF80123
:100E6000838D981781F46C817D81C6010E94910D5C
:100E7000C8010E94B1050E94EA0B882309F0A0CFA7
:100E80000E94BB049DCFC8010E94B1050E94EA0BDD
:100E900097CFC8010E94B1050E94EA0B80E00F9035
:100EA0000F900F900F900F90DF91CF911F910F91A6
:100EB000FF90EF90DF90CF90BF909F908F9008951C
:100EC000CF93DF938FE190E00E940B03EC0100973A
:100ED000F9F01B821A82198218821D821C821F82DD
:100EE0001E821A8E81E08B8F1C8E8FEF8D8F8E8FDE
:100EF000CE0108960E944303CE0141960E9443030F
:100F0000CE0160E070E040E050E020E00E94C206C8
:100F10008C2F9D2FDF91CF9108950F931F93CF9327
:100F2000DF93EC018A019A8D8B8D9817E0F4CE0146
:100F3000422F0E94FF058E8D8F3F81F4898988237F
:100F4000A1F0CE0141960E94BD0D882381F00115CC
:100F5000110579F081E0F80180830CC08E8D8F5FE0
:100F60008E8F81E007C080E005C081E003C081E092
:100F700001C081E0DF91CF911F910F9108958F9271
:100F80009F92BF92CF92DF92EF92FF920F931F93A7
:100F9000CF93DF9300D00F920F92CDB7DEB78C01C5
:100FA0004B015D834C83B22EFF24EE24E3940F2E7D
:100FB000F1E1CF2EDD24F02DC80ED91E0FB6F89426
:100FC0000F92F801828D8823A1F1E680F780C80195
:100FD000B4010E948205BB20D1F4F801828D8150BA
:100FE000828F80819181009729F40E946B0EF80115
:100FF00093838283F80180858823B9F0C80108961D
:101000000E94BD0D813089F40E94BB040EC0F8011E
:10101000F782E6828189882341F0C80141960E94C7
:10102000BD0D882311F00E94BB040F900FBE81E01C
:101030005FC08C819D81009721F40F900FBE80E0EE
:1010400057C0FF2029F4CE0101960E94050EFE2C08
:101050000F900FBE0E940C0B0FB6F8940F92F80180
:10106000858D8F3F09F4158EF801868D8F3F09F429
:10107000168E0F900FBECE010196BE016C5F7F4FA2
:101080000E94100E882371F50FB6F8940F92F801A4
:10109000828D0F900FBE8823F9F4F8018081918131
:1010A000009751F40FB6F8940F92F8018281938162
:1010B0000E94700E0F900FBE6C817D81C6010E9450
:1010C000910DC8010E94B1050E94EA0B882309F026
:1010D00075CF0E94BB0472CFC8010E94B1050E9467
:1010E000EA0B6CCFC8010E94B1050E94EA0B80E0B8
:1010F0000F900F900F900F900F90DF91CF911F9155
:101100000F91FF90EF90DF90CF90BF909F908F90C6
:1011100008950F931F93CF93DF93EC018A018A8D7B
:101120008823F1F0CE010E9482058A8D81508A8F3A
:101130008D8D8F3F81F488858823A1F0CE0108969C
:101140000E94BD0D882381F00115110579F081E021
:10115000F80180830CC08D8D8F5F8D8F81E007C07B
:1011600080E005C081E003C081E001C081E0DF9143
:10117000CF911F910F9108950FB6F8940F92FC0133
:10118000828D0F900FBE0895FC01828D0895CF933C
:10119000DF93EC01888199810E943403CE010E9483
:1011A0003403DF91CF910895FC01928D81E091117C
:1011B00080E00895FC01228D81E0938D291380E069
:1011C0000895CF93DF93EC01E0914A1AF0914B1A06
:1011D000938382838091521A9091531AC817D9072A
:1011E00068F48091551A9091561A60914A1A70913C
:1011F0004B1A6E5F7F4F0E947E0317C08091571A73
:101200009091581A60914A1A70914B1A6E5F7F4FF5
:101210000E947E0380910C0290910D02C817D9079D
:1012200020F4D0930D02C0930C02DF91CF9108956A
:10123000CBE5DAE188818230E8F30E94BB04FACF83
:101240004F925F926F927F928F929F92BF92CF92B6
:10125000DF92EF92FF920F931F93CF93DF932C01B6
:101260004B01EA013901B02E8AE290E00E940B03A3
:101270008C01009709F4E3C0C114D10409F0F4C053
:10128000CE010E940B036C01F801908F878B0097B1
:1012900029F4C8010E9434038FEFD6C0C60165EA65
:1012A00070E0AE010E94080F9E0121503040F8010D
:1012B0008789908D6C01C20ED31EC8014996B40176
:1012C00040E150E00E940F0FF80110A6CB2DF3E093
:1012D000FB1508F4C3E0F801C68BC1A78824992444
:1012E000689481F8800E911EC4010E945103C801C8
:1012F0000C960E945103F8011187008784E090E06A
:101300008C1B910995878487138B028BC601B201D0
:10131000A3010E94E203F80191838083E114F104A8
:1013200019F0F701118300830FB6F8940F928091A2
:10133000541A8F5F8093541A80914A1A90914B1AD5
:101340000097D9F510934B1A00934A1A8091541ABA
:10135000813009F041C0C0E0D0E0CE01880F991F74
:10136000880F991F880F991F8C0F9D1F855A954EC6
:101370000E9443032196C430D10579F7CFE7DAE123
:10138000CE010E9443030F2EF8E8EF2EFAE1FF2E64
:10139000F02DC7010E94430381E99AE10E944303B3
:1013A0008AE99AE10E944303D093581AC093571ACE
:1013B000F092561AE092551A0FC08091501A882365
:1013C00059F4E0914A1AF0914B1A8689B81620F028
:1013D00010934B1A00934A1AF80186899091591A72
:1013E000981710F48093591A90915A1A9F5F90930E
:1013F0005A1A9091511A981710F48093511A90E04C
:101400009C01220F331F220F331F220F331F820F25
:10141000931F855A954EB4010E9455030F900FBE3D
:101420008091501A882369F0E0914A1AF0914B1A82
:1014300086898B1540F40E94BB0481E005C08FEFC4
:1014400003C081E001C081E0DF91CF911F910F9136
:10145000FF90EF90DF90CF90BF909F908F907F9004
:101460006F905F904F900895FC01D08EC78A16CF81
:10147000FC01828593852AE18A39920761F42489E7
:1014800035898AE12139380741F081E0211531059C
:1014900029F080E0089580E0089580E008950F939A
:1014A0001F93CF93DF93EC010097B9F180914A1A13
:1014B00090914B1AC817D90781F10FB6F8940F9283
:1014C000CE010E94380A813031F58E010E5F1F4F28
:1014D000C8010E94BB038E899091511A981710F48D
:1014E0008093511A90E09C01220F331F220F331F6B
:1014F000220F331F820F931F855A954EB8010E9409
:101500005503E0914A1AF0914B1A9E8986899817E3
:1015100010F00E94BB040F900FBEDF91CF911F917E
:101520000F910895EF92FF921F93CF93DF93EC01F9
:101530000E94380A8130B9F580914F1A882351F5FD
:10154000E0914A1AF0914B1A11E09E89868998170A
:1015500008F410E0EE24FF246894E1F8EC0EFD1E80
:10156000C7010E94BB038E899091511A981710F4FD
:101570008093511A90E09C01220F331F220F331FDA
:10158000220F331F820F931F855A954EB7010E9479
:1015900055030AC0BE01645F7F4F81E99AE10E9452
:1015A000550310E001C010E0812FDF91CF911F9112
:1015B000FF90EF900895AF92BF92CF92DF92EF929B
:1015C000FF920F9388E199E067E072E045E550E013
:1015D00020E030E000E0EE24FF24CC24DD24AA2427
:1015E000BB240E942009813049F4F8948093501A5A
:1015F0001092531A1092521A0E947B040F91FF907E
:10160000EF90DF90CF90BF90AF900895F894109234
:10161000501A0E94BA04089580914F1A8F5F8093E8
:101620004F1A08950FB6F8940F928091521A909124
:10163000531A0F900FBE08958091521A9091531A29
:1016400008958091541A08950F931F93CF93DF93B9
:1016500080914F1A882309F0B3C08091521A90915B
:10166000531A01969093531A8093521A8091521AEA
:101670009091531A009799F58091571A9091581AA2
:101680002091551A3091561A3093581A2093571AB0
:101690009093561A8093551A80914C1A8F5F8093BD
:1016A0004C1AE091571AF091581A8081882339F426
:1016B0008FEF9FEF90930D0280930C0210C0E0918A
:1016C000571AF091581A0580F681E02D0680F781AF
:1016D000E02D8281938190930D0280930C022091E2
:1016E000521A3091531A80910C0290910D022817D2
:1016F000390708F46AC0E091571AF091581A8081AE
:10170000882399F0E091571AF091581A0580F681D4
:10171000E02DC681D7818A819B812091521A309118
:10172000531A28173907F8F419C08FEF9FEF9093D9
:101730000D0280930C0249C0E091571AF091581A9B
:101740000580F681E02DC681D7818A819B81209119
:10175000521A3091531A2817390728F490930D0222
:1017600080930C0232C08E010E5F1F4FC8010E9491
:10177000BB038C899D89009721F0CE010C960E94B5
:10178000BB038E899091511A981710F48093511AC7
:1017900090E09C01220F331F220F331F220F331FB3
:1017A000820F931F855A954EB8010E945503E09110
:1017B000571AF091581A8081882309F0BDCFB5CF10
:1017C00080914E1A8F5F80934E1ADF91CF911F91B7
:1017D0000F910895AF92BF92CF92DF92EF92FF9256
:1017E0000F931F93CF93DF930FB6F8940F928091CE
:1017F0004F1A815080934F1A80914F1A882309F015
:1018000069C08091541A882381F567C0D601ED9193
:10181000FC91C681D781CE010C960E94BB038E013C
:101820000E5F1F4FC8010E94BB038E899091511A11
:10183000981710F48093511A90E09C01220F331FE7
:10184000220F331F220F331F820F931F855A954E8D
:10185000B8010E945503E0914A1AF0914B1A9E89F3
:101860008689981788F0BA2C0FC0BB240F2EF1E997
:10187000EF2EFAE1FF2EF02D0F2EF6E9CF2EFAE132
:10188000DF2EF02DAA24A394F7018081882309F08C
:10189000BDCF80914E1A882381F080914E1A882303
:1018A00099F00E94240B80914E1A815080934E1A19
:1018B00080914E1A8823A9F707C0F1E0BF1621F0E6
:1018C00080914D1A813041F410924D1A0E94BB0450
:1018D00081E003C080E001C080E00F900FBEDF9187
:1018E000CF911F910F91FF90EF90DF90CF90BF901D
:1018F000AF900895CF93DF93EC010097B1F00E9471
:101900000C0B8091521A9091531AC80FD91F8091D5
:101910004A1A90914B1A02960E94BB03CE010E9474
:10192000E1080E94EA0B882311F40E94BB04DF91B6
:10193000CF9108950F931F93CF93DF938C01EB0109
:101940000E940C0BF80180819181C80FD91F209152
:10195000521A3091531A2817390768F4C817D90753
:1019600050F58091521A9091531AD183C0838C17ED
:101970009D07B0F40BC0C817D907C8F08091521A60
:101980009091531A8C179D0790F015C080914A1AB8
:1019900090914B1A02960E94BB03CE010E94E1086F
:1019A0000E94EA0B882359F40E94BB0408C0F80186
:1019B000D183C083EBCFF801D183C083F1CFDF9116
:1019C000CF911F910F91089580914F1A882399F418
:1019D0008091511A90E0FC01EE0FFF1FEE0FFF1FE8
:1019E000EE0FFF1F8E0F9F1FFC01E55AF54E808101
:1019F000882329F01BC081E080934D1A08958091BF
:101A0000511A81508093511A8091511A90E0FC0133
:101A1000EE0FFF1FEE0FFF1FEE0FFF1F8E0F9F1F1A
:101A2000FC01E55AF54E8081882349F38091511AD3
:101A300090E0FC01EE0FFF1FEE0FFF1FEE0FFF1FE8
:101A4000E80FF91FE55AF54EA181B28112960D906B
:101A5000BC91A02DB283A183CF010396A817B9072B
:101A600031F412968D919C9113979283818301801A
:101A7000F281E02D8681978190934B1A80934A1AC8
:101A80000895EF92FF920F931F93CF93DF937C0102
:101A90000FB6F8940F9280914A1A90914B1AE8165B
:101AA000F90621F0E114F10441F402C0EE24FF2410
:101AB000C0914A1AD0914B1A01C0E7018E010E5F06
:101AC0001F4FC8010E94BB038C899D89009721F09C
:101AD000CE010C960E94BB038AE99AE1B8010E94EC
:101AE00055030F900FBEE114F104A1F48091501A38
:101AF000882319F00E94BB040DC090919A1A80911E
:101B0000541A981729F410924B1A10924A1A02C0CC
:101B10000E94E40CDF91CF911F910F91FF90EF9005
:101B20000895CF93DF93EB0160914A1A70914B1A9D
:101B3000645F7F4F0E947E0380914A1A90914B1AF6
:101B400002960E94BB038FEFCF3FD80759F46091F4
:101B50004A1A70914B1A6E5F7F4F8AE99AE10E9490
:101B6000550308C08091521A9091531A8C0F9D1FF3
:101B70000E94E108DF91CF9108950F931F93CF93B7
:101B8000DF93DC011596ED91FC9116970681178184
:101B9000E8012C96CE010E94BB0380914F1A882346
:101BA000E9F4E8012296CE010E94BB03F801868980
:101BB0009091511A981710F48093511A90E09C015B
:101BC000220F331F220F331F220F331F820F931F49
:101BD000855A954EBE010E94550305C081E99AE1E0
:101BE000BE010E945503E0914A1AF0914B1A81E020
:101BF000D80156962C9156979689291708F480E0BB
:101C0000DF91CF911F910F910895FC0180914C1AA3
:101C100080838091521A9091531A92838183089500
:101C2000FC01DB010FB6F8940F924D915C91119776
:101C30006FEF4F3F560751F180914C1A90819817E2
:101C400049F02091521A3091531A818192812817BC
:101C50003907F0F48091521A9091531A2181328100
:101C6000821B930B84179507A8F48091521A9091C8
:101C7000531AB901681B790BCB01840F951F8D9303
:101C80009C93CF010E94050E80E005C080E003C058
:101C900081E001C081E00F900FBE089581E0809344
:101CA0004D1A0895009729F4E0914A1AF0914B1AC1
:101CB00001C0FC010788F08DE02D8081853A41F458
:101CC000319680E090E001962191253AE1F3089564
:101CD00080E090E0089580914A1A90914B1A0895FF
:101CE0000F931F93CF93DF93EC01009709F44DC03E
:101CF0008E89E0914A1AF0914B1A9689891708F05B
:101D000044C0E0914A1AF0914B1A968924E030E0E1
:101D1000291B31093D872C8790E09C01220F331F3E
:101D2000220F331F220F331F820F931F855A954EA8
:101D30002A853B852817390711F58E010E5F1F4F45
:101D4000C8010E94BB03E0914A1AF0914B1A8689A0
:101D50008E8B9091511A981710F48093511A90E03D
:101D60009C01220F331F220F331F220F331F820FBC
:101D7000931F855A954EB8010E94550306C0E09105
:101D80004A1AF0914B1A86898E8BDF91CF911F9161
:101D90000F9108950F931F93CF93DF93EC0100975A
:101DA00049F19E8989A5981729F18E010E5F1F4F71
:101DB000C8010E94BB0349A54E8B242F30E084E06C
:101DC00090E0821B930B9D878C878091511A84171A
:101DD00010F44093511AC901880F991F880F991F59
:101DE000880F991F280F391FC901855A954EB801D0
:101DF0000E945503DF91CF911F910F910895FB0130
:101E0000DC0102C001900D9241505040D8F7089576
:101E1000DC0101C06D9341505040E0F70895FB0193
:101E2000DC014150504048F001900D920020C9F76C
:101E300001C01D9241505040E0F70895F894FFCF43
:0E1E40005430007854300049444C4500FFFFF8
:00000001FF
