:10000000EF92FF920F931F93DF93CF93CDB7DEB79D
:100010002A970FB6F894DEBF0FBECDBF9E838D83A7
:100020004F83588769877A878F819885A985BA8594
:100030007C018D01689413F816950795F794E79461
:10004000169401F48D819E819C0140E050E0C8012E
:10005000B7010E940000DA01C9010197A109B109A5
:1000600089839A83AB83BC83EDECF0E089819A812C
:10007000AB81BC81892F9A2FAB2FBB278083ECECFF
:10008000F0E089818083E9ECF0E088E98083EAECA4
:10009000F0E086E08083A8ECB0E0E8ECF0E080815E
:1000A0008D7F8C932A960FB6F894DEBF0FBECDBF1E
:1000B000CF91DF911F910F91FF90EF900895DF9303
:1000C000CF93CDB7DEB780E895E240E054E264EF2D
:1000D00070E00E940000E4E2F0E08FEF8083E5E250
:1000E000F0E01082789400C0DF93CF9300D00F929D
:1000F000CDB7DEB79A8389830F900F900F900F9042
:06010000CF91DF9108958C
:00000001FF
