:100000000C9472000C948B000C948B000C948B005D
:100010000C948B000C948B000C948B000C948B0034
:100020000C948B000C948B000C948B000C948B0024
:100030000C948B000C948B000C948B000C948B0014
:100040000C948B000C948B000C948B000C948B0004
:100050000C948B000C948B000C948B000C948B00F4
:100060000C948B000C948B000C948B000C948B00E4
:100070000C948B000C948B000C948B000C948B00D4
:100080000C948B000C948B000C948B000C948B00C4
:100090000C948B000C948B000C948B000C948B00B4
:1000A0000C948B000C948B000C948B000C948B00A4
:1000B0000C948B000C948B000C948B000C948B0094
:1000C0000C948B000C948B000C948B000C948B0084
:1000D0000C948B000C948B000C948B000C948B0074
:1000E0000C948B0011241FBECFEFD1E2DEBFCDBF39
:1000F00000E00CBF12E0A0E0B2E0EEEDF1E000E0C5
:100100000BBF02C007900D92A030B107D9F70E9433
:10011000B9000C94ED000C9400000F931F9324E0A1
:1001200076956795579547952A95D1F78C0120E0EC
:1001300030E0CB01BA01A90198010E94CB00215007
:10014000304040405040BB27A52F942F832F8093F1
:10015000C5002093C40088E98093C10086E08093A5
:10016000C200E0ECF0E080818D7F80831F910F91D1
:10017000089580E895E240E054E264EF70E00E9468
:100180008D008FEF84B915B878948091C800FDCFA9
:100190008FEF85B90895A1E21A2EAA1BBB1BFD01A2
:1001A0000DC0AA1FBB1FEE1FFF1FA217B307E40756
:1001B000F50720F0A21BB30BE40BF50B661F771FAE
:1001C000881F991F1A9469F760957095809590958E
:0E01D0009B01AC01BD01CF010895F894FFCF53
:00000001FF
